{
  "contractName": "Forwarder",
  "abi": [
    {
      "constant": true,
      "inputs": [],
      "name": "parentAddress",
      "outputs": [
        {
          "name": "",
          "type": "address"
        }
      ],
      "payable": false,
      "stateMutability": "view",
      "type": "function"
    },
    {
      "inputs": [],
      "payable": false,
      "stateMutability": "nonpayable",
      "type": "constructor"
    },
    {
      "payable": true,
      "stateMutability": "payable",
      "type": "fallback"
    },
    {
      "anonymous": false,
      "inputs": [
        {
          "indexed": false,
          "name": "from",
          "type": "address"
        },
        {
          "indexed": false,
          "name": "value",
          "type": "uint256"
        },
        {
          "indexed": false,
          "name": "data",
          "type": "bytes"
        }
      ],
      "name": "ForwarderDeposited",
      "type": "event"
    },
    {
      "anonymous": false,
      "inputs": [
        {
          "indexed": false,
          "name": "token",
          "type": "address"
        },
        {
          "indexed": false,
          "name": "balance",
          "type": "uint256"
        }
      ],
      "name": "TokenFlushed",
      "type": "event"
    },
    {
      "constant": false,
      "inputs": [
        {
          "name": "tokenContractAddress",
          "type": "address"
        }
      ],
      "name": "flushTokens",
      "outputs": [],
      "payable": false,
      "stateMutability": "nonpayable",
      "type": "function"
    },
    {
      "constant": false,
      "inputs": [],
      "name": "flush",
      "outputs": [],
      "payable": false,
      "stateMutability": "nonpayable",
      "type": "function"
    }
  ],
  "bytecode": "0x608060405234801561001057600080fd5b5060008054600160a060020a03191633179055610576806100326000396000f3fe60806040526004361061004f577c01000000000000000000000000000000000000000000000000000000006000350462821de381146101365780633ef13367146101745780636b9f96ea146101b6575b6000805460405173ffffffffffffffffffffffffffffffffffffffff909116913480156108fc02929091818181858888f19350505050158015610096573d6000803e3d6000fd5b507f69b31548dea9b3b707b4dff357d326e3e9348b24e7a6080a218a6edeeec48f9b3334600036604051808573ffffffffffffffffffffffffffffffffffffffff1673ffffffffffffffffffffffffffffffffffffffff168152602001848152602001806020018281038252848482818152602001925080828437600083820152604051601f909101601f191690920182900397509095505050505050a1005b34801561014257600080fd5b5061014b6101cb565b6040805173ffffffffffffffffffffffffffffffffffffffff9092168252519081900360200190f35b34801561018057600080fd5b506101b46004803603602081101561019757600080fd5b503573ffffffffffffffffffffffffffffffffffffffff166101e7565b005b3480156101c257600080fd5b506101b46104d0565b60005473ffffffffffffffffffffffffffffffffffffffff1681565b60005473ffffffffffffffffffffffffffffffffffffffff163314610257576040517f08c379a000000000000000000000000000000000000000000000000000000000815260040180806020018281038252602681526020018061051c6026913960400191505060405180910390fd5b604080517f70a082310000000000000000000000000000000000000000000000000000000081523060048201819052915183929160009173ffffffffffffffffffffffffffffffffffffffff8516916370a08231916024808301926020929190829003018186803b1580156102cb57600080fd5b505afa1580156102df573d6000803e3d6000fd5b505050506040513d60208110156102f557600080fd5b505190508061036557604080517f08c379a000000000000000000000000000000000000000000000000000000000815260206004820152601660248201527f546f6b656e2062616c616e6365206973207a65726f2e00000000000000000000604482015290519081900360640190fd5b60008054604080517fa9059cbb00000000000000000000000000000000000000000000000000000000815273ffffffffffffffffffffffffffffffffffffffff92831660048201526024810185905290519186169263a9059cbb926044808401936020939083900390910190829087803b1580156103e257600080fd5b505af11580156103f6573d6000803e3d6000fd5b505050506040513d602081101561040c57600080fd5b505161047957604080517f08c379a000000000000000000000000000000000000000000000000000000000815260206004820152601660248201527f546f6b656e207472616e73666572206661696c65642e00000000000000000000604482015290519081900360640190fd5b6040805173ffffffffffffffffffffffffffffffffffffffff861681526020810183905281517f75d34d39d28e6c8fd84f5539c817dea378701028c77ceade58bb8789b3e81bde929181900390910190a150505050565b6000805460405173ffffffffffffffffffffffffffffffffffffffff90911691303180156108fc02929091818181858888f19350505050158015610518573d6000803e3d6000fd5b5056fe4f6e6c7920706172656e742063616e206578656375746520746869732066756e6374696f6e2ea265627a7a723058201421d2e7846c672c307dca0902d95d91c79b12396c4118582b53ef49c9f1f65964736f6c634300050a0032",
  "source": "pragma solidity ^0.5.6;\nimport \"./IERC20.sol\";\n\ncontract Forwarder {\n    address payable public parentAddress;\n    event ForwarderDeposited(address from, uint256 value, bytes data);\n    event TokenFlushed(address token, uint256 balance);\n\n    constructor() public {\n        parentAddress = msg.sender;\n    }\n\n    modifier onlyParent {\n        require(msg.sender == parentAddress, \"Only parent can execute this function.\");\n        _;\n    }\n\n    function() external payable {\n        parentAddress.transfer(msg.value);\n        emit ForwarderDeposited(msg.sender, msg.value, msg.data);\n    }\n\n    function flushTokens(address tokenContractAddress) public onlyParent {\n        IERC20 instance = IERC20(tokenContractAddress);\n        address forwarderAddress = address(this);\n        uint256 forwarderBalance = instance.balanceOf(forwarderAddress);\n        require(forwarderBalance != 0, \"Token balance is zero.\");\n        require(instance.transfer(parentAddress, forwarderBalance), \"Token transfer failed.\");\n        emit TokenFlushed(tokenContractAddress, forwarderBalance);\n    }\n\n    //It is possible that funds were sent to this address before the contract was deployed.\n    //We can flush those funds to the parent address.\n    function flush() public {\n        // throws on failure\n        parentAddress.transfer(address(this).balance);\n    }\n}\n",
  "sourcePath": "/Users/seita/go/src/github.com/github.com/seita-uc/ethereum-multisig/contracts/Forwarder/Forwarder.sol",
  "compiler": {
    "name": "solc",
    "version": "0.5.10+commit.5a6ea5b1.Emscripten.clang"
  },
  "schemaVersion": "3.0.11",
  "updatedAt": "2019-06-27T04:07:40.133Z",
  "devdoc": {
    "methods": {}
  },
  "userdoc": {
    "methods": {}
  }
}