{
  "contractName": "Forwarder",
  "abi": [
    {
      "constant": true,
      "inputs": [],
      "name": "parentAddress",
      "outputs": [
        {
          "name": "",
          "type": "address"
        }
      ],
      "payable": false,
      "stateMutability": "view",
      "type": "function"
    },
    {
      "inputs": [],
      "payable": false,
      "stateMutability": "nonpayable",
      "type": "constructor"
    },
    {
      "payable": true,
      "stateMutability": "payable",
      "type": "fallback"
    },
    {
      "anonymous": false,
      "inputs": [
        {
          "indexed": false,
          "name": "from",
          "type": "address"
        },
        {
          "indexed": false,
          "name": "value",
          "type": "uint256"
        },
        {
          "indexed": false,
          "name": "data",
          "type": "bytes"
        }
      ],
      "name": "ForwarderDeposited",
      "type": "event"
    },
    {
      "anonymous": false,
      "inputs": [
        {
          "indexed": false,
          "name": "token",
          "type": "address"
        },
        {
          "indexed": false,
          "name": "balance",
          "type": "uint256"
        }
      ],
      "name": "TokenFlushed",
      "type": "event"
    },
    {
      "constant": false,
      "inputs": [
        {
          "name": "tokenContractAddress",
          "type": "address"
        }
      ],
      "name": "flushTokens",
      "outputs": [],
      "payable": false,
      "stateMutability": "nonpayable",
      "type": "function"
    },
    {
      "constant": false,
      "inputs": [],
      "name": "flush",
      "outputs": [],
      "payable": false,
      "stateMutability": "nonpayable",
      "type": "function"
    }
  ],
  "bytecode": "0x608060405234801561001057600080fd5b50600080546001600160a01b0319163317905561047d806100326000396000f3fe6080604052600436106100335760003560e01c8062821de3146100f35780633ef13367146101245780636b9f96ea14610159575b600080546040516001600160a01b03909116913480156108fc02929091818181858888f1935050505015801561006d573d6000803e3d6000fd5b507f69b31548dea9b3b707b4dff357d326e3e9348b24e7a6080a218a6edeeec48f9b333460003660405180856001600160a01b03166001600160a01b03168152602001848152602001806020018281038252848482818152602001925080828437600083820152604051601f909101601f191690920182900397509095505050505050a1005b3480156100ff57600080fd5b5061010861016e565b604080516001600160a01b039092168252519081900360200190f35b34801561013057600080fd5b506101576004803603602081101561014757600080fd5b50356001600160a01b031661017d565b005b34801561016557600080fd5b506101576103e4565b6000546001600160a01b031681565b6000546001600160a01b031633146101c65760405162461bcd60e51b81526004018080602001828103825260268152602001806104236026913960400191505060405180910390fd5b604080517f70a08231000000000000000000000000000000000000000000000000000000008152306004820181905291518392916000916001600160a01b038516916370a08231916024808301926020929190829003018186803b15801561022d57600080fd5b505afa158015610241573d6000803e3d6000fd5b505050506040513d602081101561025757600080fd5b50519050806102ad576040805162461bcd60e51b815260206004820152601660248201527f546f6b656e2062616c616e6365206973207a65726f2e00000000000000000000604482015290519081900360640190fd5b60008054604080517fa9059cbb0000000000000000000000000000000000000000000000000000000081526001600160a01b0392831660048201526024810185905290519186169263a9059cbb926044808401936020939083900390910190829087803b15801561031d57600080fd5b505af1158015610331573d6000803e3d6000fd5b505050506040513d602081101561034757600080fd5b505161039a576040805162461bcd60e51b815260206004820152601660248201527f546f6b656e207472616e73666572206661696c65642e00000000000000000000604482015290519081900360640190fd5b604080516001600160a01b03861681526020810183905281517f75d34d39d28e6c8fd84f5539c817dea378701028c77ceade58bb8789b3e81bde929181900390910190a150505050565b600080546040516001600160a01b0390911691303180156108fc02929091818181858888f1935050505015801561041f573d6000803e3d6000fd5b5056fe4f6e6c7920706172656e742063616e206578656375746520746869732066756e6374696f6e2ea265627a7a72305820243bfaf81a15bfcca87cc20d6bb70c0b53659e635be942b8cc6d05cd7885f50264736f6c634300050a0032",
  "source": "pragma solidity ^0.5.6;\nimport \"./IERC20.sol\";\n\ncontract Forwarder {\n    address payable public parentAddress;\n    event ForwarderDeposited(address from, uint256 value, bytes data);\n    event TokenFlushed(address token, uint256 balance);\n\n    constructor() public {\n        parentAddress = msg.sender;\n    }\n\n    modifier onlyParent {\n        require(msg.sender == parentAddress, \"Only parent can execute this function.\");\n        _;\n    }\n\n    function() external payable {\n        parentAddress.transfer(msg.value);\n        emit ForwarderDeposited(msg.sender, msg.value, msg.data);\n    }\n\n    function flushTokens(address tokenContractAddress) public onlyParent {\n        IERC20 instance = IERC20(tokenContractAddress);\n        address forwarderAddress = address(this);\n        uint256 forwarderBalance = instance.balanceOf(forwarderAddress);\n        require(forwarderBalance != 0, \"Token balance is zero.\");\n        require(instance.transfer(parentAddress, forwarderBalance), \"Token transfer failed.\");\n        emit TokenFlushed(tokenContractAddress, forwarderBalance);\n    }\n\n    //It is possible that funds were sent to this address before the contract was deployed.\n    //We can flush those funds to the parent address.\n    function flush() public {\n        // throws on failure\n        parentAddress.transfer(address(this).balance);\n    }\n}\n",
  "sourcePath": "/Users/seita/go/src/github.com/github.com/seita-uc/ethereum-multisig/contracts/Forwarder/Forwarder.sol",
  "compiler": {
    "name": "solc",
    "version": "0.5.10+commit.5a6ea5b1.Emscripten.clang"
  },
  "schemaVersion": "3.0.11",
  "updatedAt": "2019-06-28T07:35:18.987Z",
  "devdoc": {
    "methods": {}
  },
  "userdoc": {
    "methods": {}
  }
}