{
  "contractName": "ForwarderFactory",
  "abi": [
    {
      "constant": false,
      "inputs": [],
      "name": "renounceOwnership",
      "outputs": [],
      "payable": false,
      "stateMutability": "nonpayable",
      "type": "function"
    },
    {
      "constant": true,
      "inputs": [],
      "name": "owner",
      "outputs": [
        {
          "name": "",
          "type": "address"
        }
      ],
      "payable": false,
      "stateMutability": "view",
      "type": "function"
    },
    {
      "constant": false,
      "inputs": [],
      "name": "reclaimEther",
      "outputs": [],
      "payable": false,
      "stateMutability": "nonpayable",
      "type": "function"
    },
    {
      "constant": false,
      "inputs": [
        {
          "name": "_newOwner",
          "type": "address"
        }
      ],
      "name": "transferOwnership",
      "outputs": [],
      "payable": false,
      "stateMutability": "nonpayable",
      "type": "function"
    },
    {
      "inputs": [],
      "payable": false,
      "stateMutability": "nonpayable",
      "type": "constructor"
    },
    {
      "payable": false,
      "stateMutability": "nonpayable",
      "type": "fallback"
    },
    {
      "anonymous": false,
      "inputs": [
        {
          "indexed": false,
          "name": "forwarder",
          "type": "address"
        }
      ],
      "name": "ForwarderCreated",
      "type": "event"
    },
    {
      "anonymous": false,
      "inputs": [
        {
          "indexed": true,
          "name": "previousOwner",
          "type": "address"
        }
      ],
      "name": "OwnershipRenounced",
      "type": "event"
    },
    {
      "anonymous": false,
      "inputs": [
        {
          "indexed": true,
          "name": "previousOwner",
          "type": "address"
        },
        {
          "indexed": true,
          "name": "newOwner",
          "type": "address"
        }
      ],
      "name": "OwnershipTransferred",
      "type": "event"
    },
    {
      "constant": false,
      "inputs": [
        {
          "name": "_salt",
          "type": "uint256"
        },
        {
          "name": "_parent",
          "type": "address"
        }
      ],
      "name": "createForwarder",
      "outputs": [
        {
          "name": "",
          "type": "address"
        }
      ],
      "payable": false,
      "stateMutability": "nonpayable",
      "type": "function"
    },
    {
      "constant": true,
      "inputs": [
        {
          "name": "_salt",
          "type": "uint256"
        },
        {
          "name": "_sender",
          "type": "address"
        }
      ],
      "name": "getDeploymentAddress",
      "outputs": [
        {
          "name": "",
          "type": "address"
        }
      ],
      "payable": false,
      "stateMutability": "view",
      "type": "function"
    }
  ],
  "bytecode": "0x608060405234801561001057600080fd5b50600080546001600160a01b03191633179055341561009057604080517f08c379a000000000000000000000000000000000000000000000000000000000815260206004820152601360248201527f6d757374206e6f742073656e6420457468657200000000000000000000000000604482015290519081900360640190fd5b60405161009f602082016100c3565b601f1982820381018352601f909101166040528051602091909101206001556100d0565b61069480610d1583390190565b610c36806100df6000396000f3fe608060405234801561001057600080fd5b50600436106100725760003560e01c80638da5cb5b116100505780638da5cb5b146100f05780639f727c27146100f8578063f2fde38b1461010057610072565b806368b3605b14610074578063715018a6146100bc57806381ae1f5b146100c4575b005b6100a06004803603604081101561008a57600080fd5b50803590602001356001600160a01b0316610126565b604080516001600160a01b039092168252519081900360200190f35b61007261013a565b6100a0600480360360408110156100da57600080fd5b50803590602001356001600160a01b03166101de565b6100a061025b565b61007261026a565b6100726004803603602081101561011657600080fd5b50356001600160a01b03166102e9565b6000610133833384610341565b9392505050565b6000546001600160a01b03163314610189576040805162461bcd60e51b815260206004820152600d60248201526c36bab9ba1031329037bbb732b960991b604482015290519081900360640190fd5b600080546040516001600160a01b03909116917ff8df31144d9c2f0f6b59d69b8b98abd5459d07f2742c4df920b25aae33c6482091a26000805473ffffffffffffffffffffffffffffffffffffffff19169055565b6000806101eb8484610405565b600154604080517fff000000000000000000000000000000000000000000000000000000000000006020808301919091523060601b6021830152603582019490945260558082019390935281518082039093018352607501905280519101206001600160a01b0316949350505050565b6000546001600160a01b031681565b6000546001600160a01b031633146102b9576040805162461bcd60e51b815260206004820152600d60248201526c36bab9ba1031329037bbb732b960991b604482015290519081900360640190fd5b6040513390303180156108fc02916000818181858888f193505050501580156102e6573d6000803e3d6000fd5b50565b6000546001600160a01b03163314610338576040805162461bcd60e51b815260206004820152600d60248201526c36bab9ba1031329037bbb732b960991b604482015290519081900360640190fd5b6102e681610444565b60008061034e8585610507565b9050806001600160a01b031663c4d66de8846040518263ffffffff1660e01b815260040180826001600160a01b03166001600160a01b03168152602001915050600060405180830381600087803b1580156103a857600080fd5b505af11580156103bc573d6000803e3d6000fd5b5050604080516001600160a01b038516815290517f6a1722b151fa6ee2129092224b7b96addf678f7981115ec5867d03fd820a41589350908190036020019150a1949350505050565b6040805160208082019490945260609290921b6bffffffffffffffffffffffff1916828201528051808303603401815260549092019052805191012090565b6001600160a01b03811661049f576040805162461bcd60e51b815260206004820152601960248201527f63616e6e6f742072656e6f756e6365206f776e65727368697000000000000000604482015290519081900360640190fd5b600080546040516001600160a01b03808516939216917f8be0079c531659141344cd1fd0a4f28419497f9722a3daafe3b4186f6b6457e091a36000805473ffffffffffffffffffffffffffffffffffffffff19166001600160a01b0392909216919091179055565b60008060606040518060200161051c90610560565b601f1982820381018352601f909101166040529050600061053d8686610405565b9050808251602084016000f59250823b61055657600080fd5b5090949350505050565b6106948061056e8339019056fe60806040526000805460ff1916905534801561001a57600080fd5b5061066a8061002a6000396000f3fe6080604052600436106100595760003560e01c80633ef13367116100435780633ef133671461017a5780636b9f96ea146101af578063c4d66de8146101c457610059565b8062821de314610120578063158ef93e14610151575b600080546040516001600160a01b0361010090920491909116913480156108fc02929091818181858888f1935050505015801561009a573d6000803e3d6000fd5b507f69b31548dea9b3b707b4dff357d326e3e9348b24e7a6080a218a6edeeec48f9b333460003660405180856001600160a01b03166001600160a01b03168152602001848152602001806020018281038252848482818152602001925080828437600083820152604051601f909101601f191690920182900397509095505050505050a1005b34801561012c57600080fd5b506101356101f7565b604080516001600160a01b039092168252519081900360200190f35b34801561015d57600080fd5b5061016661020b565b604080519115158252519081900360200190f35b34801561018657600080fd5b506101ad6004803603602081101561019d57600080fd5b50356001600160a01b0316610214565b005b3480156101bb57600080fd5b506101ad610485565b3480156101d057600080fd5b506101ad600480360360208110156101e757600080fd5b50356001600160a01b03166104ca565b60005461010090046001600160a01b031681565b60005460ff1681565b60005461010090046001600160a01b031633146102625760405162461bcd60e51b81526004018080602001828103825260268152602001806106106026913960400191505060405180910390fd5b604080517f70a08231000000000000000000000000000000000000000000000000000000008152306004820181905291518392916000916001600160a01b038516916370a08231916024808301926020929190829003018186803b1580156102c957600080fd5b505afa1580156102dd573d6000803e3d6000fd5b505050506040513d60208110156102f357600080fd5b5051905080610349576040805162461bcd60e51b815260206004820152601660248201527f546f6b656e2062616c616e6365206973207a65726f2e00000000000000000000604482015290519081900360640190fd5b60008054604080517fa9059cbb0000000000000000000000000000000000000000000000000000000081526001600160a01b03610100909304831660048201526024810185905290519186169263a9059cbb926044808401936020939083900390910190829087803b1580156103be57600080fd5b505af11580156103d2573d6000803e3d6000fd5b505050506040513d60208110156103e857600080fd5b505161043b576040805162461bcd60e51b815260206004820152601660248201527f546f6b656e207472616e73666572206661696c65642e00000000000000000000604482015290519081900360640190fd5b604080516001600160a01b03861681526020810183905281517f75d34d39d28e6c8fd84f5539c817dea378701028c77ceade58bb8789b3e81bde929181900390910190a150505050565b600080546040516001600160a01b036101009092049190911691303180156108fc02929091818181858888f193505050501580156104c7573d6000803e3d6000fd5b50565b60005460ff161561050c5760405162461bcd60e51b815260040180806020018281038252602b8152602001806105e5602b913960400191505060405180910390fd5b60006001600160a01b0382166105535760405162461bcd60e51b81526004018080602001828103825260268152602001806105bf6026913960400191505060405180910390fd5b6000805460017fffffffffffffffffffffff0000000000000000000000000000000000000000ff9091166101006001600160a01b038616021760ff19161781556040517f5daa87a0e9463431830481fd4b6e3403442dfb9a12b9c07597e9f61d50b633c89190a1505056fe506172656e7420616464726573732063616e6e6f74206265207a65726f20616464726573732e5468697320636f6e74726163742068617320616c7265616479206265656e20696e697469616c697a65642e4f6e6c7920706172656e742063616e206578656375746520746869732066756e6374696f6e2ea265627a7a723058208e8679cca7129f0fc0242eca6711b9756376073e9f252a1224c7af73e33b464164736f6c634300050a0032a265627a7a7230582054036ba0119f6143d50c2783ab52eb569ca0dd5cd0455bc62724201f0c44d22d64736f6c634300050a003260806040526000805460ff1916905534801561001a57600080fd5b5061066a8061002a6000396000f3fe6080604052600436106100595760003560e01c80633ef13367116100435780633ef133671461017a5780636b9f96ea146101af578063c4d66de8146101c457610059565b8062821de314610120578063158ef93e14610151575b600080546040516001600160a01b0361010090920491909116913480156108fc02929091818181858888f1935050505015801561009a573d6000803e3d6000fd5b507f69b31548dea9b3b707b4dff357d326e3e9348b24e7a6080a218a6edeeec48f9b333460003660405180856001600160a01b03166001600160a01b03168152602001848152602001806020018281038252848482818152602001925080828437600083820152604051601f909101601f191690920182900397509095505050505050a1005b34801561012c57600080fd5b506101356101f7565b604080516001600160a01b039092168252519081900360200190f35b34801561015d57600080fd5b5061016661020b565b604080519115158252519081900360200190f35b34801561018657600080fd5b506101ad6004803603602081101561019d57600080fd5b50356001600160a01b0316610214565b005b3480156101bb57600080fd5b506101ad610485565b3480156101d057600080fd5b506101ad600480360360208110156101e757600080fd5b50356001600160a01b03166104ca565b60005461010090046001600160a01b031681565b60005460ff1681565b60005461010090046001600160a01b031633146102625760405162461bcd60e51b81526004018080602001828103825260268152602001806106106026913960400191505060405180910390fd5b604080517f70a08231000000000000000000000000000000000000000000000000000000008152306004820181905291518392916000916001600160a01b038516916370a08231916024808301926020929190829003018186803b1580156102c957600080fd5b505afa1580156102dd573d6000803e3d6000fd5b505050506040513d60208110156102f357600080fd5b5051905080610349576040805162461bcd60e51b815260206004820152601660248201527f546f6b656e2062616c616e6365206973207a65726f2e00000000000000000000604482015290519081900360640190fd5b60008054604080517fa9059cbb0000000000000000000000000000000000000000000000000000000081526001600160a01b03610100909304831660048201526024810185905290519186169263a9059cbb926044808401936020939083900390910190829087803b1580156103be57600080fd5b505af11580156103d2573d6000803e3d6000fd5b505050506040513d60208110156103e857600080fd5b505161043b576040805162461bcd60e51b815260206004820152601660248201527f546f6b656e207472616e73666572206661696c65642e00000000000000000000604482015290519081900360640190fd5b604080516001600160a01b03861681526020810183905281517f75d34d39d28e6c8fd84f5539c817dea378701028c77ceade58bb8789b3e81bde929181900390910190a150505050565b600080546040516001600160a01b036101009092049190911691303180156108fc02929091818181858888f193505050501580156104c7573d6000803e3d6000fd5b50565b60005460ff161561050c5760405162461bcd60e51b815260040180806020018281038252602b8152602001806105e5602b913960400191505060405180910390fd5b60006001600160a01b0382166105535760405162461bcd60e51b81526004018080602001828103825260268152602001806105bf6026913960400191505060405180910390fd5b6000805460017fffffffffffffffffffffff0000000000000000000000000000000000000000ff9091166101006001600160a01b038616021760ff19161781556040517f5daa87a0e9463431830481fd4b6e3403442dfb9a12b9c07597e9f61d50b633c89190a1505056fe506172656e7420616464726573732063616e6e6f74206265207a65726f20616464726573732e5468697320636f6e74726163742068617320616c7265616479206265656e20696e697469616c697a65642e4f6e6c7920706172656e742063616e206578656375746520746869732066756e6374696f6e2ea265627a7a723058208e8679cca7129f0fc0242eca6711b9756376073e9f252a1224c7af73e33b464164736f6c634300050a0032",
  "source": "pragma solidity ^0.5.6;\n\nimport \"../Forwarder/InitializableForwarder.sol\";\nimport \"../Ownership/HasNoEther.sol\";\n\ncontract ForwarderFactory is HasNoEther {\n\n    // An event sent when a forwarder is created.\n    event ForwarderCreated(address forwarder);\n\n    //event DebugBytes32(bytes32 log);\n    //event DebugBytes20(bytes20 log);\n    //event DebugAddress(address log);\n\n    bytes32 private contractCodeHash;\n\n    constructor() public {\n        contractCodeHash = keccak256(\n            type(InitializableForwarder).creationCode\n        );\n    }\n\n    function createForwarder(uint256 _salt, address payable _parent) public returns (address) {\n        return _createForwarder(_salt, msg.sender, _parent);\n    }\n\n    function getDeploymentAddress(uint256 _salt, address _sender) public view returns (address) {\n        // Adapted from https://github.com/archanova/solidity/blob/08f8f6bedc6e71c24758d20219b7d0749d75919d/contracts/contractCreator/ContractCreator.sol\n        bytes32 salt = _getSalt(_salt, _sender);\n        bytes32 rawAddress = keccak256(\n            abi.encodePacked(\n                bytes1(0xff),\n                address(this),\n                salt,\n                contractCodeHash\n        )\n        );\n\n        return address(bytes20(rawAddress << 96));\n    }\n\n    function _createForwarder(uint256 _salt, address _sender, address payable _parent) internal returns (address) {\n        InitializableForwarder forwarder = _deployForwarder(_salt, _sender);\n        forwarder.initialize(_parent);\n        emit ForwarderCreated(address(forwarder));\n        return address(forwarder);\n    }\n\n    function _deployForwarder(uint256 _salt, address _sender) internal returns (InitializableForwarder) {\n        address payable addr;\n        bytes memory code = type(InitializableForwarder).creationCode;\n        bytes32 salt = _getSalt(_salt, _sender);\n\n        assembly {\n            addr := create2(0, add(code, 0x20), mload(code), salt)\n            if iszero(extcodesize(addr)) {\n                revert(0, 0)\n            }\n        }\n\n        return InitializableForwarder(addr);\n    }\n\n    function _getSalt(uint256 _salt, address _sender) internal pure returns (bytes32) {\n        return keccak256(abi.encodePacked(_salt, _sender));\n    }\n}\n\n",
  "sourcePath": "/Users/seita/go/src/github.com/github.com/seita-uc/ethereum-multisig/contracts/Factory/ForwarderFactory.sol",
  "compiler": {
    "name": "solc",
    "version": "0.5.10+commit.5a6ea5b1.Emscripten.clang"
  },
  "schemaVersion": "3.0.11",
  "updatedAt": "2019-06-28T07:35:18.967Z",
  "devdoc": {
    "methods": {
      "reclaimEther()": {
        "details": "Transfers all Ether held by this contract to the owner."
      },
      "renounceOwnership()": {
        "details": "Allows the current `owner` to renounce ownership"
      },
      "transferOwnership(address)": {
        "details": "Allows the current `owner` to transfer ownership",
        "params": {
          "_newOwner": "The new `owner`"
        }
      }
    }
  },
  "userdoc": {
    "methods": {}
  }
}