{
  "contractName": "HasNoEther",
  "abi": [
    {
      "constant": false,
      "inputs": [],
      "name": "renounceOwnership",
      "outputs": [],
      "payable": false,
      "stateMutability": "nonpayable",
      "type": "function"
    },
    {
      "constant": true,
      "inputs": [],
      "name": "owner",
      "outputs": [
        {
          "name": "",
          "type": "address"
        }
      ],
      "payable": false,
      "stateMutability": "view",
      "type": "function"
    },
    {
      "constant": false,
      "inputs": [
        {
          "name": "_newOwner",
          "type": "address"
        }
      ],
      "name": "transferOwnership",
      "outputs": [],
      "payable": false,
      "stateMutability": "nonpayable",
      "type": "function"
    },
    {
      "inputs": [],
      "payable": true,
      "stateMutability": "payable",
      "type": "constructor"
    },
    {
      "payable": false,
      "stateMutability": "nonpayable",
      "type": "fallback"
    },
    {
      "anonymous": false,
      "inputs": [
        {
          "indexed": true,
          "name": "previousOwner",
          "type": "address"
        }
      ],
      "name": "OwnershipRenounced",
      "type": "event"
    },
    {
      "anonymous": false,
      "inputs": [
        {
          "indexed": true,
          "name": "previousOwner",
          "type": "address"
        },
        {
          "indexed": true,
          "name": "newOwner",
          "type": "address"
        }
      ],
      "name": "OwnershipTransferred",
      "type": "event"
    },
    {
      "constant": false,
      "inputs": [],
      "name": "reclaimEther",
      "outputs": [],
      "payable": false,
      "stateMutability": "nonpayable",
      "type": "function"
    }
  ],
  "bytecode": "0x608060405260008054600160a060020a03191633179055341561008357604080517f08c379a000000000000000000000000000000000000000000000000000000000815260206004820152601360248201527f6d757374206e6f742073656e6420457468657200000000000000000000000000604482015290519081900360640190fd5b61045b806100926000396000f3fe608060405234801561001057600080fd5b5060043610610068577c01000000000000000000000000000000000000000000000000000000006000350463715018a6811461006a5780638da5cb5b146100725780639f727c27146100a3578063f2fde38b146100ab575b005b6100686100de565b61007a6101c6565b6040805173ffffffffffffffffffffffffffffffffffffffff9092168252519081900360200190f35b6100686101e2565b610068600480360360208110156100c157600080fd5b503573ffffffffffffffffffffffffffffffffffffffff16610298565b60005473ffffffffffffffffffffffffffffffffffffffff16331461016457604080517f08c379a000000000000000000000000000000000000000000000000000000000815260206004820152600d60248201527f6d757374206265206f776e657200000000000000000000000000000000000000604482015290519081900360640190fd5b6000805460405173ffffffffffffffffffffffffffffffffffffffff909116917ff8df31144d9c2f0f6b59d69b8b98abd5459d07f2742c4df920b25aae33c6482091a26000805473ffffffffffffffffffffffffffffffffffffffff19169055565b60005473ffffffffffffffffffffffffffffffffffffffff1681565b60005473ffffffffffffffffffffffffffffffffffffffff16331461026857604080517f08c379a000000000000000000000000000000000000000000000000000000000815260206004820152600d60248201527f6d757374206265206f776e657200000000000000000000000000000000000000604482015290519081900360640190fd5b6040513390303180156108fc02916000818181858888f19350505050158015610295573d6000803e3d6000fd5b50565b60005473ffffffffffffffffffffffffffffffffffffffff16331461031e57604080517f08c379a000000000000000000000000000000000000000000000000000000000815260206004820152600d60248201527f6d757374206265206f776e657200000000000000000000000000000000000000604482015290519081900360640190fd5b6102958173ffffffffffffffffffffffffffffffffffffffff81166103a457604080517f08c379a000000000000000000000000000000000000000000000000000000000815260206004820152601960248201527f63616e6e6f742072656e6f756e6365206f776e65727368697000000000000000604482015290519081900360640190fd5b6000805460405173ffffffffffffffffffffffffffffffffffffffff808516939216917f8be0079c531659141344cd1fd0a4f28419497f9722a3daafe3b4186f6b6457e091a36000805473ffffffffffffffffffffffffffffffffffffffff191673ffffffffffffffffffffffffffffffffffffffff9290921691909117905556fea265627a7a72305820a59fa21467b3eeff9ef648d06521c47658f4dbf6c77554e96c3cc2eadf88cc1764736f6c634300050a0032",
  "source": "pragma solidity ^0.5.6;\n//pragma solidity ^0.4.24;\n\nimport \"./Ownable.sol\";\n\n\n/// @title HasNoEther is for contracts that should not own Ether\ncontract HasNoEther is Ownable {\n\n    /// @dev This contructor rejects incoming Ether\n    constructor() public payable {\n        require(msg.value == 0, \"must not send Ether\");\n    }\n\n    /// @dev Disallows direct send by default function not being `payable`\n    function() external {}\n\n    /// @dev Transfers all Ether held by this contract to the owner.\n    function reclaimEther() external onlyOwner {\n        msg.sender.transfer(address(this).balance); \n    }\n}\n",
  "sourcePath": "/Users/seita/go/src/github.com/github.com/seita-uc/ethereum-multisig/contracts/Ownership/HasNoEther.sol",
  "compiler": {
    "name": "solc",
    "version": "0.5.10+commit.5a6ea5b1.Emscripten.clang"
  },
  "schemaVersion": "3.0.11",
  "updatedAt": "2019-06-27T02:13:23.167Z",
  "devdoc": {
    "methods": {
      "constructor": {
        "details": "This contructor rejects incoming Ether"
      },
      "reclaimEther()": {
        "details": "Transfers all Ether held by this contract to the owner."
      },
      "renounceOwnership()": {
        "details": "Allows the current `owner` to renounce ownership"
      },
      "transferOwnership(address)": {
        "details": "Allows the current `owner` to transfer ownership",
        "params": {
          "_newOwner": "The new `owner`"
        }
      }
    },
    "title": "HasNoEther is for contracts that should not own Ether"
  },
  "userdoc": {
    "methods": {}
  }
}