{
  "contractName": "HasNoEther",
  "abi": [
    {
      "constant": false,
      "inputs": [],
      "name": "renounceOwnership",
      "outputs": [],
      "payable": false,
      "stateMutability": "nonpayable",
      "type": "function"
    },
    {
      "constant": true,
      "inputs": [],
      "name": "owner",
      "outputs": [
        {
          "name": "",
          "type": "address"
        }
      ],
      "payable": false,
      "stateMutability": "view",
      "type": "function"
    },
    {
      "constant": false,
      "inputs": [
        {
          "name": "_newOwner",
          "type": "address"
        }
      ],
      "name": "transferOwnership",
      "outputs": [],
      "payable": false,
      "stateMutability": "nonpayable",
      "type": "function"
    },
    {
      "inputs": [],
      "payable": true,
      "stateMutability": "payable",
      "type": "constructor"
    },
    {
      "payable": false,
      "stateMutability": "nonpayable",
      "type": "fallback"
    },
    {
      "anonymous": false,
      "inputs": [
        {
          "indexed": true,
          "name": "previousOwner",
          "type": "address"
        }
      ],
      "name": "OwnershipRenounced",
      "type": "event"
    },
    {
      "anonymous": false,
      "inputs": [
        {
          "indexed": true,
          "name": "previousOwner",
          "type": "address"
        },
        {
          "indexed": true,
          "name": "newOwner",
          "type": "address"
        }
      ],
      "name": "OwnershipTransferred",
      "type": "event"
    },
    {
      "constant": false,
      "inputs": [],
      "name": "reclaimEther",
      "outputs": [],
      "payable": false,
      "stateMutability": "nonpayable",
      "type": "function"
    }
  ],
  "bytecode": "0x608060405260008054600160a060020a03191633179055341561008357604080517f08c379a000000000000000000000000000000000000000000000000000000000815260206004820152601360248201527f6d757374206e6f742073656e6420457468657200000000000000000000000000604482015290519081900360640190fd5b61047e806100926000396000f3006080604052600436106100615763ffffffff7c0100000000000000000000000000000000000000000000000000000000600035041663715018a681146100705780638da5cb5b146100875780639f727c27146100c5578063f2fde38b146100da575b34801561006d57600080fd5b50005b34801561007c57600080fd5b50610085610108565b005b34801561009357600080fd5b5061009c6101f0565b6040805173ffffffffffffffffffffffffffffffffffffffff9092168252519081900360200190f35b3480156100d157600080fd5b5061008561020c565b3480156100e657600080fd5b5061008573ffffffffffffffffffffffffffffffffffffffff600435166102c2565b60005473ffffffffffffffffffffffffffffffffffffffff16331461018e57604080517f08c379a000000000000000000000000000000000000000000000000000000000815260206004820152600d60248201527f6d757374206265206f776e657200000000000000000000000000000000000000604482015290519081900360640190fd5b6000805460405173ffffffffffffffffffffffffffffffffffffffff909116917ff8df31144d9c2f0f6b59d69b8b98abd5459d07f2742c4df920b25aae33c6482091a26000805473ffffffffffffffffffffffffffffffffffffffff19169055565b60005473ffffffffffffffffffffffffffffffffffffffff1681565b60005473ffffffffffffffffffffffffffffffffffffffff16331461029257604080517f08c379a000000000000000000000000000000000000000000000000000000000815260206004820152600d60248201527f6d757374206265206f776e657200000000000000000000000000000000000000604482015290519081900360640190fd5b6040513390303180156108fc02916000818181858888f193505050501580156102bf573d6000803e3d6000fd5b50565b60005473ffffffffffffffffffffffffffffffffffffffff16331461034857604080517f08c379a000000000000000000000000000000000000000000000000000000000815260206004820152600d60248201527f6d757374206265206f776e657200000000000000000000000000000000000000604482015290519081900360640190fd5b6102bf8173ffffffffffffffffffffffffffffffffffffffff811615156103d057604080517f08c379a000000000000000000000000000000000000000000000000000000000815260206004820152601960248201527f63616e6e6f742072656e6f756e6365206f776e65727368697000000000000000604482015290519081900360640190fd5b6000805460405173ffffffffffffffffffffffffffffffffffffffff808516939216917f8be0079c531659141344cd1fd0a4f28419497f9722a3daafe3b4186f6b6457e091a36000805473ffffffffffffffffffffffffffffffffffffffff191673ffffffffffffffffffffffffffffffffffffffff929092169190911790555600a165627a7a72305820a0e0ac16d8106d2273a631ac97211df1ece00cae221554e0acca21e40d1a3ab50029",
  "source": "//pragma solidity ^0.5.6;\npragma solidity ^0.4.24;\n\nimport \"./Ownable.sol\";\n\n\n/// @title HasNoEther is for contracts that should not own Ether\ncontract HasNoEther is Ownable {\n\n    /// @dev This contructor rejects incoming Ether\n    constructor() public payable {\n        require(msg.value == 0, \"must not send Ether\");\n    }\n\n    /// @dev Disallows direct send by default function not being `payable`\n    function() external {}\n\n    /// @dev Transfers all Ether held by this contract to the owner.\n    function reclaimEther() external onlyOwner {\n        msg.sender.transfer(address(this).balance); \n    }\n}\n",
  "sourcePath": "/Users/seita/go/src/github.com/github.com/seita-uc/ethereum-multisig/contracts/Ownership/HasNoEther.sol",
  "compiler": {
    "name": "solc",
    "version": "0.4.26+commit.4563c3fc.Emscripten.clang"
  },
  "schemaVersion": "3.0.11",
  "updatedAt": "2019-06-26T05:57:25.368Z",
  "devdoc": {
    "methods": {
      "reclaimEther()": {
        "details": "Transfers all Ether held by this contract to the owner."
      },
      "renounceOwnership()": {
        "details": "Allows the current `owner` to renounce ownership"
      },
      "transferOwnership(address)": {
        "details": "Allows the current `owner` to transfer ownership",
        "params": {
          "_newOwner": "The new `owner`"
        }
      }
    },
    "title": "HasNoEther is for contracts that should not own Ether"
  },
  "userdoc": {
    "methods": {}
  }
}