{
  "contractName": "InitializableMultiSig2of2",
  "abi": [
    {
      "constant": true,
      "inputs": [],
      "name": "initialized",
      "outputs": [
        {
          "name": "",
          "type": "bool"
        }
      ],
      "payable": false,
      "stateMutability": "view",
      "type": "function"
    },
    {
      "constant": true,
      "inputs": [],
      "name": "unchainedMultisigVersionMajor",
      "outputs": [
        {
          "name": "",
          "type": "uint256"
        }
      ],
      "payable": false,
      "stateMutability": "view",
      "type": "function"
    },
    {
      "constant": true,
      "inputs": [],
      "name": "spendNonce",
      "outputs": [
        {
          "name": "",
          "type": "uint256"
        }
      ],
      "payable": false,
      "stateMutability": "view",
      "type": "function"
    },
    {
      "constant": true,
      "inputs": [],
      "name": "unchainedMultisigVersionMinor",
      "outputs": [
        {
          "name": "",
          "type": "uint256"
        }
      ],
      "payable": false,
      "stateMutability": "view",
      "type": "function"
    },
    {
      "inputs": [],
      "payable": false,
      "stateMutability": "nonpayable",
      "type": "constructor"
    },
    {
      "payable": true,
      "stateMutability": "payable",
      "type": "fallback"
    },
    {
      "anonymous": false,
      "inputs": [
        {
          "indexed": false,
          "name": "newBalance",
          "type": "uint256"
        }
      ],
      "name": "Funded",
      "type": "event"
    },
    {
      "anonymous": false,
      "inputs": [
        {
          "indexed": false,
          "name": "to",
          "type": "address"
        },
        {
          "indexed": false,
          "name": "transfer",
          "type": "uint256"
        }
      ],
      "name": "Spent",
      "type": "event"
    },
    {
      "anonymous": false,
      "inputs": [
        {
          "indexed": false,
          "name": "forwarder",
          "type": "address"
        }
      ],
      "name": "ForwarderCreated",
      "type": "event"
    },
    {
      "anonymous": false,
      "inputs": [],
      "name": "Initialized",
      "type": "event"
    },
    {
      "anonymous": false,
      "inputs": [
        {
          "indexed": false,
          "name": "log",
          "type": "bytes32"
        }
      ],
      "name": "DebugBytes32",
      "type": "event"
    },
    {
      "anonymous": false,
      "inputs": [
        {
          "indexed": false,
          "name": "log",
          "type": "bytes"
        }
      ],
      "name": "DebugBytes",
      "type": "event"
    },
    {
      "anonymous": false,
      "inputs": [
        {
          "indexed": false,
          "name": "log",
          "type": "address"
        }
      ],
      "name": "DebugAddress",
      "type": "event"
    },
    {
      "anonymous": false,
      "inputs": [
        {
          "indexed": false,
          "name": "log",
          "type": "uint8"
        }
      ],
      "name": "DebugUint8",
      "type": "event"
    },
    {
      "constant": false,
      "inputs": [
        {
          "name": "_owner1",
          "type": "address"
        },
        {
          "name": "_owner2",
          "type": "address"
        }
      ],
      "name": "initialize",
      "outputs": [],
      "payable": false,
      "stateMutability": "nonpayable",
      "type": "function"
    },
    {
      "constant": false,
      "inputs": [],
      "name": "createForwarder",
      "outputs": [],
      "payable": false,
      "stateMutability": "nonpayable",
      "type": "function"
    },
    {
      "constant": true,
      "inputs": [
        {
          "name": "destination",
          "type": "address"
        },
        {
          "name": "value",
          "type": "uint256"
        }
      ],
      "name": "generateMessageToSign",
      "outputs": [
        {
          "name": "",
          "type": "bytes32"
        }
      ],
      "payable": false,
      "stateMutability": "view",
      "type": "function"
    },
    {
      "constant": false,
      "inputs": [
        {
          "name": "destination",
          "type": "address"
        },
        {
          "name": "value",
          "type": "uint256"
        },
        {
          "name": "v1",
          "type": "uint8"
        },
        {
          "name": "r1",
          "type": "bytes32"
        },
        {
          "name": "s1",
          "type": "bytes32"
        },
        {
          "name": "v2",
          "type": "uint8"
        },
        {
          "name": "r2",
          "type": "bytes32"
        },
        {
          "name": "s2",
          "type": "bytes32"
        }
      ],
      "name": "spend",
      "outputs": [],
      "payable": false,
      "stateMutability": "nonpayable",
      "type": "function"
    }
  ],
  "bytecode": "0x60806040526000805460ff19168155600281815560035560045534801561002557600080fd5b50610df1806100356000396000f3fe60806040526004361061007b5760003560e01c8063a68a76cc1161004e578063a68a76cc14610153578063a7dd7a5914610168578063bb6d203c1461017d578063d0590bad146101e25761007b565b8063158ef93e146100b157806323eb861c146100da578063485cc95514610101578063843b1a091461013e575b604080513031815290517fc4c14883ae9fd8e26d5d59e3485ed29fd126d781d7e498a4ca5c54c8268e49369181900360200190a1005b3480156100bd57600080fd5b506100c661021b565b604080519115158252519081900360200190f35b3480156100e657600080fd5b506100ef610224565b60408051918252519081900360200190f35b34801561010d57600080fd5b5061013c6004803603604081101561012457600080fd5b506001600160a01b038135811691602001351661022a565b005b34801561014a57600080fd5b506100ef6103a9565b34801561015f57600080fd5b5061013c6103af565b34801561017457600080fd5b506100ef61041d565b34801561018957600080fd5b5061013c60048036036101008110156101a157600080fd5b506001600160a01b038135169060208101359060ff604082013581169160608101359160808201359160a08101359091169060c08101359060e00135610423565b3480156101ee57600080fd5b506100ef6004803603604081101561020557600080fd5b506001600160a01b038135169060200135610568565b60005460ff1681565b60035481565b60005460ff1615610266576040805162461bcd60e51b81526020600482015260016024820152603160f81b604482015290519081900360640190fd5b60006001600160a01b0383166102a7576040805162461bcd60e51b81526020600482015260016024820152603160f81b604482015290519081900360640190fd5b806001600160a01b0316826001600160a01b031614156102f2576040805162461bcd60e51b81526020600482015260016024820152603160f81b604482015290519081900360640190fd5b816001600160a01b0316836001600160a01b0316141561033d576040805162461bcd60e51b81526020600482015260016024820152603160f81b604482015290519081900360640190fd5b6001600160a01b038084166000908152600160208190526040808320805460ff19908116841790915593861683528083208054851683179055825490931617815590517f5daa87a0e9463431830481fd4b6e3403442dfb9a12b9c07597e9f61d50b633c89190a1505050565b60025481565b60006040516103bd90610900565b604051809103906000f0801580156103d9573d6000803e3d6000fd5b50604080516001600160a01b038316815290519192507f6a1722b151fa6ee2129092224b7b96addf678f7981115ec5867d03fd820a4158919081900360200190a150565b60045481565b3031871115610479576040805162461bcd60e51b815260206004820152600160248201527f3300000000000000000000000000000000000000000000000000000000000000604482015290519081900360640190fd5b610489888888888888888861061d565b6104da576040805162461bcd60e51b815260206004820152600160248201527f3400000000000000000000000000000000000000000000000000000000000000604482015290519081900360640190fd5b6002805460010190556040516001600160a01b0389169088156108fc029089906000818181858888f19350505050158015610519573d6000803e3d6000fd5b50604080516001600160a01b038a1681526020810189905281517fd3eec71143c45f28685b24760ea218d476917aa0ac0392a55e5304cef40bd2b6929181900390910190a15050505050505050565b60006001600160a01b0383163014156105c8576040805162461bcd60e51b815260206004820152600160248201527f3200000000000000000000000000000000000000000000000000000000000000604482015290519081900360640190fd5b506002546040805160208082019390935230606090811b8284015260548201949094529390921b6bffffffffffffffffffffffff19166074840152815180840360680181526088909301909152815191012090565b60008061062a8a8a61074a565b905060006001828a8a8a60405160008152602001604052604051808581526020018460ff1660ff1681526020018381526020018281526020019450505050506020604051602081039080840390855afa15801561068b573d6000803e3d6000fd5b505060408051601f19808201516000808452602084810180875289905260ff8d1685870152606085018c9052608085018b90529451919650945060019360a0808501949193830192918290030190855afa1580156106ed573d6000803e3d6000fd5b5050506020604051035190506107038282610808565b610738576040805162461bcd60e51b81526020600482015260016024820152603560f81b604482015290519081900360640190fd5b5060019b9a5050505050505050505050565b6000806107578484610568565b905060606040518060400160405280601c81526020017f19457468657265756d205369676e6564204d6573736167653a0a333200000000815250905080826040516020018083805190602001908083835b602083106107c75780518252601f1990920191602091820191016107a8565b51815160209384036101000a600019018019909216911617905292019384525060408051808503815293820190528251920191909120979650505050505050565b6000816001600160a01b0316836001600160a01b03161415610855576040805162461bcd60e51b81526020600482015260016024820152603560f81b604482015290519081900360640190fd5b6001600160a01b03831660009081526001602052604090205460ff166108a6576040805162461bcd60e51b81526020600482015260016024820152603560f81b604482015290519081900360640190fd5b6001600160a01b03821660009081526001602052604090205460ff166108f7576040805162461bcd60e51b81526020600482015260016024820152603560f81b604482015290519081900360640190fd5b50600192915050565b6104af8061090e8339019056fe608060405234801561001057600080fd5b50600080546001600160a01b0319163317905561047d806100326000396000f3fe6080604052600436106100335760003560e01c8062821de3146100f35780633ef13367146101245780636b9f96ea14610159575b600080546040516001600160a01b03909116913480156108fc02929091818181858888f1935050505015801561006d573d6000803e3d6000fd5b507f69b31548dea9b3b707b4dff357d326e3e9348b24e7a6080a218a6edeeec48f9b333460003660405180856001600160a01b03166001600160a01b03168152602001848152602001806020018281038252848482818152602001925080828437600083820152604051601f909101601f191690920182900397509095505050505050a1005b3480156100ff57600080fd5b5061010861016e565b604080516001600160a01b039092168252519081900360200190f35b34801561013057600080fd5b506101576004803603602081101561014757600080fd5b50356001600160a01b031661017d565b005b34801561016557600080fd5b506101576103e4565b6000546001600160a01b031681565b6000546001600160a01b031633146101c65760405162461bcd60e51b81526004018080602001828103825260268152602001806104236026913960400191505060405180910390fd5b604080517f70a08231000000000000000000000000000000000000000000000000000000008152306004820181905291518392916000916001600160a01b038516916370a08231916024808301926020929190829003018186803b15801561022d57600080fd5b505afa158015610241573d6000803e3d6000fd5b505050506040513d602081101561025757600080fd5b50519050806102ad576040805162461bcd60e51b815260206004820152601660248201527f546f6b656e2062616c616e6365206973207a65726f2e00000000000000000000604482015290519081900360640190fd5b60008054604080517fa9059cbb0000000000000000000000000000000000000000000000000000000081526001600160a01b0392831660048201526024810185905290519186169263a9059cbb926044808401936020939083900390910190829087803b15801561031d57600080fd5b505af1158015610331573d6000803e3d6000fd5b505050506040513d602081101561034757600080fd5b505161039a576040805162461bcd60e51b815260206004820152601660248201527f546f6b656e207472616e73666572206661696c65642e00000000000000000000604482015290519081900360640190fd5b604080516001600160a01b03861681526020810183905281517f75d34d39d28e6c8fd84f5539c817dea378701028c77ceade58bb8789b3e81bde929181900390910190a150505050565b600080546040516001600160a01b0390911691303180156108fc02929091818181858888f1935050505015801561041f573d6000803e3d6000fd5b5056fe4f6e6c7920706172656e742063616e206578656375746520746869732066756e6374696f6e2ea265627a7a72305820243bfaf81a15bfcca87cc20d6bb70c0b53659e635be942b8cc6d05cd7885f50264736f6c634300050a0032a265627a7a723058203a6032f6f421d60e61a98a3b541953303ce62eb2a9ccf9882a5772e40d46be4d64736f6c634300050a0032",
  "source": "pragma solidity ^0.5.6;\nimport \"../Forwarder/Forwarder.sol\";\n\ncontract InitializableMultiSig2of2 {\n\n    bool public initialized = false;\n\n    // The 2 addresses which control the funds in this contract.  The\n    // owners of 2 of these addresses will need to both sign a message\n    // allowing the funds in this contract to be spent.\n    mapping(address => bool) private owners;\n\n    // The contract nonce is not accessible to the contract so we\n    // implement a nonce-like variable for replay protection.\n    uint256 public spendNonce = 0;\n\n    // Contract Versioning\n    uint256 public unchainedMultisigVersionMajor = 2;\n    uint256 public unchainedMultisigVersionMinor = 0;\n\n    // An event sent when funds are received.\n    event Funded(uint newBalance);\n\n    // An event sent when a spend is triggered to the given address.\n    event Spent(address to, uint transfer);\n\n    // An event sent when a forwarder is created.\n    event ForwarderCreated(address forwarder);\n\n    // An event sent when initialized.\n    event Initialized();\n\n    event DebugBytes32(bytes32 log);\n    event DebugBytes(bytes log);\n    event DebugAddress(address log);\n    event DebugUint8(uint8 log);\n\n    constructor() public {}\n\n    // The fallback function for this contract.\n    function() external payable {\n        emit Funded(address(this).balance);\n    }\n\n    function initialize(address _owner1, address _owner2) public {\n        require(!initialized, \"1\");\n\n        address zeroAddress = address(0);\n\n        require(_owner1 != zeroAddress, \"1\");\n        require(_owner2 != zeroAddress, \"1\");\n\n        require(_owner1 != _owner2, \"1\");\n\n        owners[_owner1] = true;\n        owners[_owner2] = true;\n\n        initialized = true;\n        emit Initialized();\n    }\n\n    function createForwarder() public {\n        Forwarder forwarder = new Forwarder();\n        emit ForwarderCreated(address(forwarder));\n    }\n\n    // Generates the message to sign given the output destination address and amount.\n    // includes this contract's address and a nonce for replay protection.\n    // One option to independently verify:\n    //     https://leventozturk.com/engineering/sha3/ and select keccak\n    function generateMessageToSign(\n        address destination,\n        uint256 value\n    )\n        public view returns (bytes32)\n    {\n        require(destination != address(this), \"2\");\n        bytes32 message = keccak256(\n            abi.encodePacked(\n                spendNonce,\n                this,\n                value,\n                destination\n            )\n        );\n        return message;\n    }\n\n    // Send the given amount of ETH to the given destination using\n    // the two triplets (v1, r1, s1) and (v2, r2, s2) as signatures.\n    // s1 and s2 should be 0x00 or 0x01 corresponding to 0x1b and 0x1c respectively.\n    function spend(\n        address payable destination,\n        uint256 value,\n        uint8 v1,\n        bytes32 r1,\n        bytes32 s1,\n        uint8 v2,\n        bytes32 r2,\n        bytes32 s2\n    )\n        public\n    {\n        // This require is handled by generateMessageToSign()\n        // require(destination != address(this));\n        require(address(this).balance >= value, \"3\");\n        require(\n            _validSignature(\n                destination,\n                value,\n                v1, r1, s1,\n                v2, r2, s2\n            ),\n            \"4\");\n        spendNonce = spendNonce + 1;\n        destination.transfer(value);\n        emit Spent(destination, value);\n    }\n\n    // Confirm that the two signature triplets (v1, r1, s1) and (v2, r2, s2)\n    // both authorize a spend of this contract's funds to the given\n    // destination address.\n    function _validSignature(\n        address destination,\n        uint256 value,\n        uint8 v1, bytes32 r1, bytes32 s1,\n        uint8 v2, bytes32 r2, bytes32 s2\n    )\n        private view returns (bool)\n    {\n        bytes32 message = _messageToRecover(destination, value);\n\n        address addr1 = ecrecover(\n            message,\n            v1, r1, s1\n        );\n        address addr2 = ecrecover(\n            message,\n            v2, r2, s2\n        );\n\n        require(_distinctOwners(addr1, addr2), \"5\");\n\n        return true;\n    }\n\n    // Generate the the unsigned message (in bytes32) that each owner's\n    // wallet would have signed for the given destination and amount.\n    //\n    // The generated message from generateMessageToSign is converted to\n    // ascii when signed by a trezor.\n    //\n    // The required signing prefix, the length of this\n    // unsigned message, and the unsigned ascii message itself are\n    // then concatenated and hashed with keccak256.\n    function _messageToRecover(\n        address destination,\n        uint256 value\n    )\n        private view returns (bytes32)\n    {\n        bytes32 hashedUnsignedMessage = generateMessageToSign(\n            destination,\n            value\n        );\n        bytes memory prefix = \"\\x19Ethereum Signed Message:\\n32\";\n        return keccak256(abi.encodePacked(prefix, hashedUnsignedMessage));\n    }\n\n    // Confirm the pair of addresses as two distinct owners of this contract.\n    function _distinctOwners(\n        address addr1,\n        address addr2\n    )\n        private view returns (bool)\n    {\n        // Check that both addresses are different\n        require(addr1 != addr2, \"5\");\n        // Check that both addresses are owners\n        require(owners[addr1], \"5\");\n        require(owners[addr2], \"5\");\n        return true;\n    }\n}\n",
  "sourcePath": "/Users/seita/go/src/github.com/github.com/seita-uc/ethereum-multisig/contracts/Wallets/InitializableMultiSig2of2.sol",
  "compiler": {
    "name": "solc",
    "version": "0.5.10+commit.5a6ea5b1.Emscripten.clang"
  },
  "schemaVersion": "3.0.11",
  "updatedAt": "2019-06-28T04:48:56.258Z",
  "devdoc": {
    "methods": {}
  },
  "userdoc": {
    "methods": {}
  }
}