{
  "contractName": "InitializableForwarder",
  "abi": [
    {
      "constant": true,
      "inputs": [],
      "name": "parentAddress",
      "outputs": [
        {
          "name": "",
          "type": "address"
        }
      ],
      "payable": false,
      "stateMutability": "view",
      "type": "function"
    },
    {
      "constant": true,
      "inputs": [],
      "name": "initialized",
      "outputs": [
        {
          "name": "",
          "type": "bool"
        }
      ],
      "payable": false,
      "stateMutability": "view",
      "type": "function"
    },
    {
      "inputs": [],
      "payable": false,
      "stateMutability": "nonpayable",
      "type": "constructor"
    },
    {
      "payable": true,
      "stateMutability": "payable",
      "type": "fallback"
    },
    {
      "anonymous": false,
      "inputs": [
        {
          "indexed": false,
          "name": "from",
          "type": "address"
        },
        {
          "indexed": false,
          "name": "value",
          "type": "uint256"
        },
        {
          "indexed": false,
          "name": "data",
          "type": "bytes"
        }
      ],
      "name": "ForwarderDeposited",
      "type": "event"
    },
    {
      "anonymous": false,
      "inputs": [],
      "name": "Initialized",
      "type": "event"
    },
    {
      "anonymous": false,
      "inputs": [
        {
          "indexed": false,
          "name": "token",
          "type": "address"
        },
        {
          "indexed": false,
          "name": "balance",
          "type": "uint256"
        }
      ],
      "name": "TokenFlushed",
      "type": "event"
    },
    {
      "constant": false,
      "inputs": [
        {
          "name": "_parent",
          "type": "address"
        }
      ],
      "name": "initialize",
      "outputs": [],
      "payable": false,
      "stateMutability": "nonpayable",
      "type": "function"
    },
    {
      "constant": false,
      "inputs": [
        {
          "name": "tokenContractAddress",
          "type": "address"
        }
      ],
      "name": "flushTokens",
      "outputs": [],
      "payable": false,
      "stateMutability": "nonpayable",
      "type": "function"
    },
    {
      "constant": false,
      "inputs": [],
      "name": "flush",
      "outputs": [],
      "payable": false,
      "stateMutability": "nonpayable",
      "type": "function"
    }
  ],
  "bytecode": "0x60806040526000805460ff1916905534801561001a57600080fd5b5061066a8061002a6000396000f3fe6080604052600436106100595760003560e01c80633ef13367116100435780633ef133671461017a5780636b9f96ea146101af578063c4d66de8146101c457610059565b8062821de314610120578063158ef93e14610151575b600080546040516001600160a01b0361010090920491909116913480156108fc02929091818181858888f1935050505015801561009a573d6000803e3d6000fd5b507f69b31548dea9b3b707b4dff357d326e3e9348b24e7a6080a218a6edeeec48f9b333460003660405180856001600160a01b03166001600160a01b03168152602001848152602001806020018281038252848482818152602001925080828437600083820152604051601f909101601f191690920182900397509095505050505050a1005b34801561012c57600080fd5b506101356101f7565b604080516001600160a01b039092168252519081900360200190f35b34801561015d57600080fd5b5061016661020b565b604080519115158252519081900360200190f35b34801561018657600080fd5b506101ad6004803603602081101561019d57600080fd5b50356001600160a01b0316610214565b005b3480156101bb57600080fd5b506101ad610485565b3480156101d057600080fd5b506101ad600480360360208110156101e757600080fd5b50356001600160a01b03166104ca565b60005461010090046001600160a01b031681565b60005460ff1681565b60005461010090046001600160a01b031633146102625760405162461bcd60e51b81526004018080602001828103825260268152602001806106106026913960400191505060405180910390fd5b604080517f70a08231000000000000000000000000000000000000000000000000000000008152306004820181905291518392916000916001600160a01b038516916370a08231916024808301926020929190829003018186803b1580156102c957600080fd5b505afa1580156102dd573d6000803e3d6000fd5b505050506040513d60208110156102f357600080fd5b5051905080610349576040805162461bcd60e51b815260206004820152601660248201527f546f6b656e2062616c616e6365206973207a65726f2e00000000000000000000604482015290519081900360640190fd5b60008054604080517fa9059cbb0000000000000000000000000000000000000000000000000000000081526001600160a01b03610100909304831660048201526024810185905290519186169263a9059cbb926044808401936020939083900390910190829087803b1580156103be57600080fd5b505af11580156103d2573d6000803e3d6000fd5b505050506040513d60208110156103e857600080fd5b505161043b576040805162461bcd60e51b815260206004820152601660248201527f546f6b656e207472616e73666572206661696c65642e00000000000000000000604482015290519081900360640190fd5b604080516001600160a01b03861681526020810183905281517f75d34d39d28e6c8fd84f5539c817dea378701028c77ceade58bb8789b3e81bde929181900390910190a150505050565b600080546040516001600160a01b036101009092049190911691303180156108fc02929091818181858888f193505050501580156104c7573d6000803e3d6000fd5b50565b60005460ff161561050c5760405162461bcd60e51b815260040180806020018281038252602b8152602001806105e5602b913960400191505060405180910390fd5b60006001600160a01b0382166105535760405162461bcd60e51b81526004018080602001828103825260268152602001806105bf6026913960400191505060405180910390fd5b6000805460017fffffffffffffffffffffff0000000000000000000000000000000000000000ff9091166101006001600160a01b038616021760ff19161781556040517f5daa87a0e9463431830481fd4b6e3403442dfb9a12b9c07597e9f61d50b633c89190a1505056fe506172656e7420616464726573732063616e6e6f74206265207a65726f20616464726573732e5468697320636f6e74726163742068617320616c7265616479206265656e20696e697469616c697a65642e4f6e6c7920706172656e742063616e206578656375746520746869732066756e6374696f6e2ea265627a7a723058208e8679cca7129f0fc0242eca6711b9756376073e9f252a1224c7af73e33b464164736f6c634300050a0032",
  "source": "pragma solidity ^0.5.6;\nimport \"./IERC20.sol\";\n\ncontract InitializableForwarder {\n\n    bool public initialized = false;\n    address payable public parentAddress;\n\n    event ForwarderDeposited(address from, uint256 value, bytes data);\n    event Initialized();\n    event TokenFlushed(address token, uint256 balance);\n\n    constructor() public {}\n\n    modifier onlyParent {\n        require(msg.sender == parentAddress, \"Only parent can execute this function.\");\n        _;\n    }\n\n    function() external payable {\n        parentAddress.transfer(msg.value);\n        emit ForwarderDeposited(msg.sender, msg.value, msg.data);\n    }\n\n    function initialize(address payable _parent) public {\n        require(!initialized, \"This contract has already been initialized.\");\n\n        address zeroAddress = address(0);\n        require(_parent != zeroAddress, \"Parent address cannot be zero address.\");\n\n        parentAddress = _parent;\n\n        initialized = true;\n        emit Initialized();\n    }\n\n    function flushTokens(address tokenContractAddress) public onlyParent {\n        IERC20 instance = IERC20(tokenContractAddress);\n        address forwarderAddress = address(this);\n        uint256 forwarderBalance = instance.balanceOf(forwarderAddress);\n        require(forwarderBalance != 0, \"Token balance is zero.\");\n        require(instance.transfer(parentAddress, forwarderBalance), \"Token transfer failed.\");\n        emit TokenFlushed(tokenContractAddress, forwarderBalance);\n    }\n\n    //It is possible that funds were sent to this address before the contract was deployed.\n    //We can flush those funds to the parent address.\n    function flush() public {\n        // throws on failure\n        parentAddress.transfer(address(this).balance);\n    }\n}\n",
  "sourcePath": "/Users/seita/go/src/github.com/github.com/seita-uc/ethereum-multisig/contracts/Forwarder/InitializableForwarder.sol",
  "compiler": {
    "name": "solc",
    "version": "0.5.10+commit.5a6ea5b1.Emscripten.clang"
  },
  "schemaVersion": "3.0.11",
  "updatedAt": "2019-06-28T07:35:18.989Z",
  "devdoc": {
    "methods": {}
  },
  "userdoc": {
    "methods": {}
  }
}