{
  "contractName": "MultiSig2of2",
  "abi": [
    {
      "constant": true,
      "inputs": [],
      "name": "unchainedMultisigVersionMajor",
      "outputs": [
        {
          "name": "",
          "type": "uint256"
        }
      ],
      "payable": false,
      "stateMutability": "view",
      "type": "function"
    },
    {
      "constant": true,
      "inputs": [],
      "name": "spendNonce",
      "outputs": [
        {
          "name": "",
          "type": "uint256"
        }
      ],
      "payable": false,
      "stateMutability": "view",
      "type": "function"
    },
    {
      "constant": true,
      "inputs": [],
      "name": "unchainedMultisigVersionMinor",
      "outputs": [
        {
          "name": "",
          "type": "uint256"
        }
      ],
      "payable": false,
      "stateMutability": "view",
      "type": "function"
    },
    {
      "inputs": [
        {
          "name": "owner1",
          "type": "address"
        },
        {
          "name": "owner2",
          "type": "address"
        }
      ],
      "payable": false,
      "stateMutability": "nonpayable",
      "type": "constructor"
    },
    {
      "payable": true,
      "stateMutability": "payable",
      "type": "fallback"
    },
    {
      "anonymous": false,
      "inputs": [
        {
          "indexed": false,
          "name": "newBalance",
          "type": "uint256"
        }
      ],
      "name": "Funded",
      "type": "event"
    },
    {
      "anonymous": false,
      "inputs": [
        {
          "indexed": false,
          "name": "to",
          "type": "address"
        },
        {
          "indexed": false,
          "name": "transfer",
          "type": "uint256"
        }
      ],
      "name": "Spent",
      "type": "event"
    },
    {
      "constant": true,
      "inputs": [
        {
          "name": "destination",
          "type": "address"
        },
        {
          "name": "value",
          "type": "uint256"
        }
      ],
      "name": "generateMessageToSign",
      "outputs": [
        {
          "name": "",
          "type": "bytes32"
        }
      ],
      "payable": false,
      "stateMutability": "view",
      "type": "function"
    },
    {
      "constant": false,
      "inputs": [
        {
          "name": "destination",
          "type": "address"
        },
        {
          "name": "value",
          "type": "uint256"
        },
        {
          "name": "v1",
          "type": "uint8"
        },
        {
          "name": "r1",
          "type": "bytes32"
        },
        {
          "name": "s1",
          "type": "bytes32"
        },
        {
          "name": "v2",
          "type": "uint8"
        },
        {
          "name": "r2",
          "type": "bytes32"
        },
        {
          "name": "s2",
          "type": "bytes32"
        }
      ],
      "name": "spend",
      "outputs": [],
      "payable": false,
      "stateMutability": "nonpayable",
      "type": "function"
    }
  ],
  "bytecode": "0x6080604052600060015560028055600060035534801561001e57600080fd5b50604051604080610df58339810160405280516020909101516000600160a060020a03831615156100b057604080517f08c379a000000000000000000000000000000000000000000000000000000000815260206004820152600160248201527f3100000000000000000000000000000000000000000000000000000000000000604482015290519081900360640190fd5b600160a060020a03828116908216141561012b57604080517f08c379a000000000000000000000000000000000000000000000000000000000815260206004820152600160248201527f3100000000000000000000000000000000000000000000000000000000000000604482015290519081900360640190fd5b600160a060020a0383811690831614156101a657604080517f08c379a000000000000000000000000000000000000000000000000000000000815260206004820152600160248201527f3100000000000000000000000000000000000000000000000000000000000000604482015290519081900360640190fd5b50600160a060020a03918216600090815260208190526040808220805460ff199081166001908117909255939094168252902080549091169091179055610c03806101f26000396000f30060806040526004361061006c5763ffffffff7c010000000000000000000000000000000000000000000000000000000060003504166323eb861c81146100a2578063843b1a09146100c9578063a7dd7a59146100de578063bb6d203c146100f3578063d0590bad14610140575b604080513031815290517fc4c14883ae9fd8e26d5d59e3485ed29fd126d781d7e498a4ca5c54c8268e49369181900360200190a1005b3480156100ae57600080fd5b506100b7610171565b60408051918252519081900360200190f35b3480156100d557600080fd5b506100b7610177565b3480156100ea57600080fd5b506100b761017d565b3480156100ff57600080fd5b5061013e73ffffffffffffffffffffffffffffffffffffffff6004351660243560ff604435811690606435906084359060a4351660c43560e435610183565b005b34801561014c57600080fd5b506100b773ffffffffffffffffffffffffffffffffffffffff60043516602435610317565b60025481565b60015481565b60035481565b30318711156101f357604080517f08c379a000000000000000000000000000000000000000000000000000000000815260206004820152600160248201527f3300000000000000000000000000000000000000000000000000000000000000604482015290519081900360640190fd5b610203888888888888888861045c565b151561027057604080517f08c379a000000000000000000000000000000000000000000000000000000000815260206004820152600160248201527f3400000000000000000000000000000000000000000000000000000000000000604482015290519081900360640190fd5b600180548101905560405173ffffffffffffffffffffffffffffffffffffffff89169088156108fc029089906000818181858888f193505050501580156102bb573d6000803e3d6000fd5b506040805173ffffffffffffffffffffffffffffffffffffffff8a1681526020810189905281517fd3eec71143c45f28685b24760ea218d476917aa0ac0392a55e5304cef40bd2b6929181900390910190a15050505050505050565b60008073ffffffffffffffffffffffffffffffffffffffff841630141561039f57604080517f08c379a000000000000000000000000000000000000000000000000000000000815260206004820152600160248201527f3200000000000000000000000000000000000000000000000000000000000000604482015290519081900360640190fd5b600154604080516020808201939093526c01000000000000000000000000308102828401526054820187905273ffffffffffffffffffffffffffffffffffffffff881602607482015281516068818303018152608890910191829052805190928291908401908083835b602083106104285780518252601f199092019160209182019101610409565b5181516020939093036101000a60001901801990911692169190911790526040519201829003909120979650505050505050565b60008060008061046c8c8c6105e1565b92506001838b601b018b8b604051600081526020016040526040518085600019166000191681526020018460ff1660ff1681526020018360001916600019168152602001826000191660001916815260200194505050505060206040516020810390808403906000865af11580156104e8573d6000803e3d6000fd5b505060408051601f1980820151600080845260208481018087528a905260ff601b8f011685870152606085018d9052608085018c905294519197506001955060a0808501959493830193839003019190865af115801561054c573d6000803e3d6000fd5b505050602060405103519050610562828261074c565b15156105cf57604080517f08c379a000000000000000000000000000000000000000000000000000000000815260206004820152600160248201527f3500000000000000000000000000000000000000000000000000000000000000604482015290519081900360640190fd5b5060019b9a5050505050505050505050565b6000806060806105f18686610317565b92506105fc8361090b565b91506040805190810160405280601c81526020017f19457468657265756d205369676e6564204d6573736167653a0a363400000000815250905080826040516020018083805190602001908083835b6020831061066a5780518252601f19909201916020918201910161064b565b51815160209384036101000a600019018019909216911617905285519190930192850191508083835b602083106106b25780518252601f199092019160209182019101610693565b6001836020036101000a038019825116818451168082178552505050505050905001925050506040516020818303038152906040526040518082805190602001908083835b602083106107165780518252601f1990920191602091820191016106f7565b5181516020939093036101000a600019018019909116921691909117905260405192018290039091209998505050505050505050565b600073ffffffffffffffffffffffffffffffffffffffff83811690831614156107d657604080517f08c379a000000000000000000000000000000000000000000000000000000000815260206004820152600160248201527f3500000000000000000000000000000000000000000000000000000000000000604482015290519081900360640190fd5b73ffffffffffffffffffffffffffffffffffffffff831660009081526020819052604090205460ff16151561086c57604080517f08c379a000000000000000000000000000000000000000000000000000000000815260206004820152600160248201527f3500000000000000000000000000000000000000000000000000000000000000604482015290519081900360640190fd5b73ffffffffffffffffffffffffffffffffffffffff821660009081526020819052604090205460ff16151561090257604080517f08c379a000000000000000000000000000000000000000000000000000000000815260206004820152600160248201527f3500000000000000000000000000000000000000000000000000000000000000604482015290519081900360640190fd5b50600192915050565b6040805181815260608082018352918291600091829182918291906020820161080080388339019050509450600093505b6020841015610adf5786846020811061095157fe5b1a7f01000000000000000000000000000000000000000000000000000000000000000292506010837f0100000000000000000000000000000000000000000000000000000000000000900460ff168115156109a857fe5b047f0100000000000000000000000000000000000000000000000000000000000000029150817f01000000000000000000000000000000000000000000000000000000000000009004601002837f01000000000000000000000000000000000000000000000000000000000000009004037f0100000000000000000000000000000000000000000000000000000000000000029050610a4682610aea565b8585600202815181101515610a5757fe5b9060200101907effffffffffffffffffffffffffffffffffffffffffffffffffffffffffffff1916908160001a905350610a9081610aea565b8585600202600101815181101515610aa457fe5b9060200101907effffffffffffffffffffffffffffffffffffffffffffffffffffffffffffff1916908160001a90535060019093019261093c565b509295945050505050565b60007f0a000000000000000000000000000000000000000000000000000000000000007fff0000000000000000000000000000000000000000000000000000000000000083161015610b8657817f010000000000000000000000000000000000000000000000000000000000000090046030017f0100000000000000000000000000000000000000000000000000000000000000029050610bd2565b817f010000000000000000000000000000000000000000000000000000000000000090046057017f01000000000000000000000000000000000000000000000000000000000000000290505b9190505600a165627a7a72305820ae64462b15d4e82d9dec57a4edcb2ca35678ff75563763b359b7d66041091acf0029",
  "source": "pragma solidity ^0.4.24;\n\ncontract MultiSig2of2 {\n\n    // The 3 addresses which control the funds in this contract.  The\n    // owners of 2 of these addresses will need to both sign a message\n    // allowing the funds in this contract to be spent.\n    mapping(address => bool) private owners;\n\n    // The contract nonce is not accessible to the contract so we\n    // implement a nonce-like variable for replay protection.\n    uint256 public spendNonce = 0;\n\n    // Contract Versioning\n    uint256 public unchainedMultisigVersionMajor = 2;\n    uint256 public unchainedMultisigVersionMinor = 0;\n\n    // An event sent when funds are received.\n    event Funded(uint newBalance);\n\n    // An event sent when a spend is triggered to the given address.\n    event Spent(address to, uint transfer);\n\n    // Instantiate a new Multisig 2 of 3 contract owned by the\n    // three given addresses\n    constructor(address owner1, address owner2) public {\n        address zeroAddress = 0x0;\n\n        require(owner1 != zeroAddress, \"1\");\n        require(owner2 != zeroAddress, \"1\");\n        //require(owner3 != zeroAddress, \"1\");\n\n        require(owner1 != owner2, \"1\");\n        //require(owner2 != owner3, \"1\");\n        //require(owner1 != owner3, \"1\");\n\n        owners[owner1] = true;\n        owners[owner2] = true;\n        //owners[owner3] = true;\n    }\n\n    // The fallback function for this contract.\n    function() public payable {\n        emit Funded(address(this).balance);\n    }\n\n    // Generates the message to sign given the output destination address and amount.\n    // includes this contract's address and a nonce for replay protection.\n    // One option to independently verify:\n    //     https://leventozturk.com/engineering/sha3/ and select keccak\n    function generateMessageToSign(\n        address destination,\n        uint256 value\n    )\n        public view returns (bytes32)\n    {\n        require(destination != address(this), \"2\");\n        bytes32 message = keccak256(\n            abi.encodePacked(\n                spendNonce,\n                this,\n                value,\n                destination\n            )\n        );\n        return message;\n    }\n\n    // Send the given amount of ETH to the given destination using\n    // the two triplets (v1, r1, s1) and (v2, r2, s2) as signatures.\n    // s1 and s2 should be 0x00 or 0x01 corresponding to 0x1b and 0x1c respectively.\n    function spend(\n        address destination,\n        uint256 value,\n        uint8 v1,\n        bytes32 r1,\n        bytes32 s1,\n        uint8 v2,\n        bytes32 r2,\n        bytes32 s2\n    )\n        public\n    {\n        // This require is handled by generateMessageToSign()\n        // require(destination != address(this));\n        require(address(this).balance >= value, \"3\");\n        require(\n            _validSignature(\n                destination,\n                value,\n                v1, r1, s1,\n                v2, r2, s2\n            ),\n            \"4\");\n        spendNonce = spendNonce + 1;\n        destination.transfer(value);\n        emit Spent(destination, value);\n    }\n\n    // Confirm that the two signature triplets (v1, r1, s1) and (v2, r2, s2)\n    // both authorize a spend of this contract's funds to the given\n    // destination address.\n    function _validSignature(\n        address destination,\n        uint256 value,\n        uint8 v1, bytes32 r1, bytes32 s1,\n        uint8 v2, bytes32 r2, bytes32 s2\n    )\n        private view returns (bool)\n    {\n        bytes32 message = _messageToRecover(destination, value);\n        address addr1 = ecrecover(\n            message,\n            v1+27, r1, s1\n        );\n        address addr2 = ecrecover(\n            message,\n            v2+27, r2, s2\n        );\n        require(_distinctOwners(addr1, addr2), \"5\");\n\n        return true;\n    }\n\n    // Generate the the unsigned message (in bytes32) that each owner's\n    // wallet would have signed for the given destination and amount.\n    //\n    // The generated message from generateMessageToSign is converted to\n    // ascii when signed by a trezor.\n    //\n    // The required signing prefix, the length of this\n    // unsigned message, and the unsigned ascii message itself are\n    // then concatenated and hashed with keccak256.\n    function _messageToRecover(\n        address destination,\n        uint256 value\n    )\n        private view returns (bytes32)\n    {\n        bytes32 hashedUnsignedMessage = generateMessageToSign(\n            destination,\n            value\n        );\n        bytes memory unsignedMessageBytes = _hashToAscii(\n            hashedUnsignedMessage\n        );\n        bytes memory prefix = \"\\x19Ethereum Signed Message:\\n64\";\n        return keccak256(abi.encodePacked(prefix,unsignedMessageBytes));\n    }\n\n    // Confirm the pair of addresses as two distinct owners of this contract.\n    function _distinctOwners(\n        address addr1,\n        address addr2\n    )\n        private view returns (bool)\n    {\n        // Check that both addresses are different\n        require(addr1 != addr2, \"5\");\n        // Check that both addresses are owners\n        require(owners[addr1], \"5\");\n        require(owners[addr2], \"5\");\n        return true;\n    }\n\n    // Construct the byte representation of the ascii-encoded\n    // hashed message written in hex.\n    function _hashToAscii(bytes32 hash) private pure returns (bytes) {\n        bytes memory s = new bytes(64);\n        for (uint i = 0; i < 32; i++) {\n            byte  b = hash[i];\n            byte hi = byte(uint8(b) / 16);\n            byte lo = byte(uint8(b) - 16 * uint8(hi));\n            s[2*i] = _char(hi);\n            s[2*i+1] = _char(lo);\n        }\n        return s;\n    }\n\n    // Convert from byte to ASCII of 0-f\n    // http://www.unicode.org/charts/PDF/U0000.pdf\n    function _char(byte b) private pure returns (byte c) {\n        if (b < 10) {\n            return byte(uint8(b) + 0x30);\n        } else {\n            return byte(uint8(b) + 0x57);\n        }\n    }\n}\n",
  "sourcePath": "/Users/seita/go/src/github.com/github.com/seita-uc/ethereum-multisig/contracts/Wallets/MultiSig2of2.sol",
  "compiler": {
    "name": "solc",
    "version": "0.4.26+commit.4563c3fc.Emscripten.clang"
  },
  "schemaVersion": "3.0.11",
  "updatedAt": "2019-06-26T05:57:25.384Z",
  "devdoc": {
    "methods": {}
  },
  "userdoc": {
    "methods": {}
  }
}