{
  "contractName": "WalletFactory",
  "abi": [
    {
      "constant": false,
      "inputs": [],
      "name": "renounceOwnership",
      "outputs": [],
      "payable": false,
      "stateMutability": "nonpayable",
      "type": "function"
    },
    {
      "constant": true,
      "inputs": [],
      "name": "owner",
      "outputs": [
        {
          "name": "",
          "type": "address"
        }
      ],
      "payable": false,
      "stateMutability": "view",
      "type": "function"
    },
    {
      "constant": false,
      "inputs": [],
      "name": "reclaimEther",
      "outputs": [],
      "payable": false,
      "stateMutability": "nonpayable",
      "type": "function"
    },
    {
      "constant": false,
      "inputs": [
        {
          "name": "_newOwner",
          "type": "address"
        }
      ],
      "name": "transferOwnership",
      "outputs": [],
      "payable": false,
      "stateMutability": "nonpayable",
      "type": "function"
    },
    {
      "inputs": [],
      "payable": false,
      "stateMutability": "nonpayable",
      "type": "constructor"
    },
    {
      "payable": false,
      "stateMutability": "nonpayable",
      "type": "fallback"
    },
    {
      "anonymous": false,
      "inputs": [
        {
          "indexed": false,
          "name": "wallet",
          "type": "address"
        },
        {
          "indexed": false,
          "name": "owner1",
          "type": "address"
        },
        {
          "indexed": false,
          "name": "owner2",
          "type": "address"
        }
      ],
      "name": "WalletCreated",
      "type": "event"
    },
    {
      "anonymous": false,
      "inputs": [
        {
          "indexed": true,
          "name": "previousOwner",
          "type": "address"
        }
      ],
      "name": "OwnershipRenounced",
      "type": "event"
    },
    {
      "anonymous": false,
      "inputs": [
        {
          "indexed": true,
          "name": "previousOwner",
          "type": "address"
        },
        {
          "indexed": true,
          "name": "newOwner",
          "type": "address"
        }
      ],
      "name": "OwnershipTransferred",
      "type": "event"
    },
    {
      "constant": false,
      "inputs": [
        {
          "name": "_owner1",
          "type": "address"
        },
        {
          "name": "_owner2",
          "type": "address"
        }
      ],
      "name": "createWallet",
      "outputs": [],
      "payable": false,
      "stateMutability": "nonpayable",
      "type": "function"
    }
  ],
  "bytecode": "0x608060405234801561001057600080fd5b50600080546001600160a01b03191633179055341561009057604080517f08c379a000000000000000000000000000000000000000000000000000000000815260206004820152601360248201527f6d757374206e6f742073656e6420457468657200000000000000000000000000604482015290519081900360640190fd5b6112108061009f6000396000f3fe608060405234801561001057600080fd5b50600436106100675760003560e01c80638f860c5f116100505780638f860c5f146100955780639f727c27146100c3578063f2fde38b146100cb57610067565b8063715018a6146100695780638da5cb5b14610071575b005b6100676100f1565b610079610195565b604080516001600160a01b039092168252519081900360200190f35b610067600480360360408110156100ab57600080fd5b506001600160a01b03813581169160200135166101a4565b61006761023c565b610067600480360360208110156100e157600080fd5b50356001600160a01b03166102bb565b6000546001600160a01b03163314610140576040805162461bcd60e51b815260206004820152600d60248201526c36bab9ba1031329037bbb732b960991b604482015290519081900360640190fd5b600080546040516001600160a01b03909116917ff8df31144d9c2f0f6b59d69b8b98abd5459d07f2742c4df920b25aae33c6482091a26000805473ffffffffffffffffffffffffffffffffffffffff19169055565b6000546001600160a01b031681565b600082826040516101b4906103d1565b6001600160a01b03928316815291166020820152604080519182900301906000f0801580156101e7573d6000803e3d6000fd5b50604080516001600160a01b038084168252808716602083015285168183015290519192507fca0b7dde26052d34217ef1a0cee48085a07ca32da0a918609937a307d496bbf5919081900360600190a1505050565b6000546001600160a01b0316331461028b576040805162461bcd60e51b815260206004820152600d60248201526c36bab9ba1031329037bbb732b960991b604482015290519081900360640190fd5b6040513390303180156108fc02916000818181858888f193505050501580156102b8573d6000803e3d6000fd5b50565b6000546001600160a01b0316331461030a576040805162461bcd60e51b815260206004820152600d60248201526c36bab9ba1031329037bbb732b960991b604482015290519081900360640190fd5b6102b8816001600160a01b038116610369576040805162461bcd60e51b815260206004820152601960248201527f63616e6e6f742072656e6f756e6365206f776e65727368697000000000000000604482015290519081900360640190fd5b600080546040516001600160a01b03808516939216917f8be0079c531659141344cd1fd0a4f28419497f9722a3daafe3b4186f6b6457e091a36000805473ffffffffffffffffffffffffffffffffffffffff19166001600160a01b0392909216919091179055565b610dfd806103df8339019056fe6080604052600060015560028055600060035534801561001e57600080fd5b50604051610dfd380380610dfd8339818101604052604081101561004157600080fd5b50805160209091015160006001600160a01b0383166100c157604080517f08c379a000000000000000000000000000000000000000000000000000000000815260206004820152600160248201527f3100000000000000000000000000000000000000000000000000000000000000604482015290519081900360640190fd5b806001600160a01b0316826001600160a01b0316141561014257604080517f08c379a000000000000000000000000000000000000000000000000000000000815260206004820152600160248201527f3100000000000000000000000000000000000000000000000000000000000000604482015290519081900360640190fd5b816001600160a01b0316836001600160a01b031614156101c357604080517f08c379a000000000000000000000000000000000000000000000000000000000815260206004820152600160248201527f3100000000000000000000000000000000000000000000000000000000000000604482015290519081900360640190fd5b506001600160a01b03918216600090815260208190526040808220805460ff199081166001908117909255939094168252902080549091169091179055610bee8061020f6000396000f3fe6080604052600436106100655760003560e01c8063a7dd7a5911610043578063a7dd7a59146100ee578063bb6d203c14610103578063d0590bad1461016857610065565b806323eb861c1461009b578063843b1a09146100c2578063a68a76cc146100d7575b604080513031815290517fc4c14883ae9fd8e26d5d59e3485ed29fd126d781d7e498a4ca5c54c8268e49369181900360200190a1005b3480156100a757600080fd5b506100b06101a1565b60408051918252519081900360200190f35b3480156100ce57600080fd5b506100b06101a7565b3480156100e357600080fd5b506100ec6101ad565b005b3480156100fa57600080fd5b506100b061021b565b34801561010f57600080fd5b506100ec600480360361010081101561012757600080fd5b506001600160a01b038135169060208101359060ff604082013581169160608101359160808201359160a08101359091169060c08101359060e00135610221565b34801561017457600080fd5b506100b06004803603604081101561018b57600080fd5b506001600160a01b038135169060200135610365565b60025481565b60015481565b60006040516101bb906106fd565b604051809103906000f0801580156101d7573d6000803e3d6000fd5b50604080516001600160a01b038316815290519192507f6a1722b151fa6ee2129092224b7b96addf678f7981115ec5867d03fd820a4158919081900360200190a150565b60035481565b3031871115610277576040805162461bcd60e51b815260206004820152600160248201527f3300000000000000000000000000000000000000000000000000000000000000604482015290519081900360640190fd5b610287888888888888888861041a565b6102d8576040805162461bcd60e51b815260206004820152600160248201527f3400000000000000000000000000000000000000000000000000000000000000604482015290519081900360640190fd5b60018054810190556040516001600160a01b0389169088156108fc029089906000818181858888f19350505050158015610316573d6000803e3d6000fd5b50604080516001600160a01b038a1681526020810189905281517fd3eec71143c45f28685b24760ea218d476917aa0ac0392a55e5304cef40bd2b6929181900390910190a15050505050505050565b60006001600160a01b0383163014156103c5576040805162461bcd60e51b815260206004820152600160248201527f3200000000000000000000000000000000000000000000000000000000000000604482015290519081900360640190fd5b506001546040805160208082019390935230606090811b8284015260548201949094529390921b6bffffffffffffffffffffffff19166074840152815180840360680181526088909301909152815191012090565b6000806104278a8a610547565b905060006001828a8a8a60405160008152602001604052604051808581526020018460ff1660ff1681526020018381526020018281526020019450505050506020604051602081039080840390855afa158015610488573d6000803e3d6000fd5b505060408051601f19808201516000808452602084810180875289905260ff8d1685870152606085018c9052608085018b90529451919650945060019360a0808501949193830192918290030190855afa1580156104ea573d6000803e3d6000fd5b5050506020604051035190506105008282610605565b610535576040805162461bcd60e51b81526020600482015260016024820152603560f81b604482015290519081900360640190fd5b5060019b9a5050505050505050505050565b6000806105548484610365565b905060606040518060400160405280601c81526020017f19457468657265756d205369676e6564204d6573736167653a0a333200000000815250905080826040516020018083805190602001908083835b602083106105c45780518252601f1990920191602091820191016105a5565b51815160209384036101000a600019018019909216911617905292019384525060408051808503815293820190528251920191909120979650505050505050565b6000816001600160a01b0316836001600160a01b03161415610652576040805162461bcd60e51b81526020600482015260016024820152603560f81b604482015290519081900360640190fd5b6001600160a01b03831660009081526020819052604090205460ff166106a3576040805162461bcd60e51b81526020600482015260016024820152603560f81b604482015290519081900360640190fd5b6001600160a01b03821660009081526020819052604090205460ff166106f4576040805162461bcd60e51b81526020600482015260016024820152603560f81b604482015290519081900360640190fd5b50600192915050565b6104af8061070b8339019056fe608060405234801561001057600080fd5b50600080546001600160a01b0319163317905561047d806100326000396000f3fe6080604052600436106100335760003560e01c8062821de3146100f35780633ef13367146101245780636b9f96ea14610159575b600080546040516001600160a01b03909116913480156108fc02929091818181858888f1935050505015801561006d573d6000803e3d6000fd5b507f69b31548dea9b3b707b4dff357d326e3e9348b24e7a6080a218a6edeeec48f9b333460003660405180856001600160a01b03166001600160a01b03168152602001848152602001806020018281038252848482818152602001925080828437600083820152604051601f909101601f191690920182900397509095505050505050a1005b3480156100ff57600080fd5b5061010861016e565b604080516001600160a01b039092168252519081900360200190f35b34801561013057600080fd5b506101576004803603602081101561014757600080fd5b50356001600160a01b031661017d565b005b34801561016557600080fd5b506101576103e4565b6000546001600160a01b031681565b6000546001600160a01b031633146101c65760405162461bcd60e51b81526004018080602001828103825260268152602001806104236026913960400191505060405180910390fd5b604080517f70a08231000000000000000000000000000000000000000000000000000000008152306004820181905291518392916000916001600160a01b038516916370a08231916024808301926020929190829003018186803b15801561022d57600080fd5b505afa158015610241573d6000803e3d6000fd5b505050506040513d602081101561025757600080fd5b50519050806102ad576040805162461bcd60e51b815260206004820152601660248201527f546f6b656e2062616c616e6365206973207a65726f2e00000000000000000000604482015290519081900360640190fd5b60008054604080517fa9059cbb0000000000000000000000000000000000000000000000000000000081526001600160a01b0392831660048201526024810185905290519186169263a9059cbb926044808401936020939083900390910190829087803b15801561031d57600080fd5b505af1158015610331573d6000803e3d6000fd5b505050506040513d602081101561034757600080fd5b505161039a576040805162461bcd60e51b815260206004820152601660248201527f546f6b656e207472616e73666572206661696c65642e00000000000000000000604482015290519081900360640190fd5b604080516001600160a01b03861681526020810183905281517f75d34d39d28e6c8fd84f5539c817dea378701028c77ceade58bb8789b3e81bde929181900390910190a150505050565b600080546040516001600160a01b0390911691303180156108fc02929091818181858888f1935050505015801561041f573d6000803e3d6000fd5b5056fe4f6e6c7920706172656e742063616e206578656375746520746869732066756e6374696f6e2ea265627a7a72305820243bfaf81a15bfcca87cc20d6bb70c0b53659e635be942b8cc6d05cd7885f50264736f6c634300050a0032a265627a7a72305820dddbde5005bea4a342c14a8286c6965c6b7bdd7ff2c45ecf546d45f3bb1ed7a264736f6c634300050a0032a265627a7a7230582044ddb8edff5f835f0791f54198bc6c2ac7edd0d05e32828c2c7f6854317f941964736f6c634300050a0032",
  "source": "pragma solidity ^0.5.6;\n\nimport \"../Wallets/MultiSig2of2.sol\";\nimport \"../Ownership/HasNoEther.sol\";\n\n/// @title WalletFactory\n/// @dev A contract for creating wallets. \ncontract WalletFactory is HasNoEther {\n\n    event WalletCreated(address wallet, address owner1, address owner2);\n\n    constructor() public {}\n\n    function createWallet(\n        address _owner1,\n        address _owner2\n    )\n    public \n    {\n        // instantiate full wallet the regular way\n        MultiSig2of2 wallet = new MultiSig2of2(_owner1, _owner2);\n        // emit event\n        emit WalletCreated(address(wallet), _owner1, _owner2);\n    }\n}\n",
  "sourcePath": "/Users/seita/go/src/github.com/github.com/seita-uc/ethereum-multisig/contracts/Factory/WalletFactory.sol",
  "compiler": {
    "name": "solc",
    "version": "0.5.10+commit.5a6ea5b1.Emscripten.clang"
  },
  "schemaVersion": "3.0.11",
  "updatedAt": "2019-06-28T07:35:18.975Z",
  "devdoc": {
    "details": "A contract for creating wallets. ",
    "methods": {
      "reclaimEther()": {
        "details": "Transfers all Ether held by this contract to the owner."
      },
      "renounceOwnership()": {
        "details": "Allows the current `owner` to renounce ownership"
      },
      "transferOwnership(address)": {
        "details": "Allows the current `owner` to transfer ownership",
        "params": {
          "_newOwner": "The new `owner`"
        }
      }
    },
    "title": "WalletFactory"
  },
  "userdoc": {
    "methods": {}
  }
}