{
  "contractName": "WalletFactory2",
  "abi": [
    {
      "constant": false,
      "inputs": [],
      "name": "renounceOwnership",
      "outputs": [],
      "payable": false,
      "stateMutability": "nonpayable",
      "type": "function"
    },
    {
      "constant": true,
      "inputs": [],
      "name": "owner",
      "outputs": [
        {
          "name": "",
          "type": "address"
        }
      ],
      "payable": false,
      "stateMutability": "view",
      "type": "function"
    },
    {
      "constant": false,
      "inputs": [],
      "name": "reclaimEther",
      "outputs": [],
      "payable": false,
      "stateMutability": "nonpayable",
      "type": "function"
    },
    {
      "constant": false,
      "inputs": [
        {
          "name": "_newOwner",
          "type": "address"
        }
      ],
      "name": "transferOwnership",
      "outputs": [],
      "payable": false,
      "stateMutability": "nonpayable",
      "type": "function"
    },
    {
      "inputs": [],
      "payable": false,
      "stateMutability": "nonpayable",
      "type": "constructor"
    },
    {
      "payable": false,
      "stateMutability": "nonpayable",
      "type": "fallback"
    },
    {
      "anonymous": false,
      "inputs": [
        {
          "indexed": false,
          "name": "wallet",
          "type": "address"
        }
      ],
      "name": "WalletCreated",
      "type": "event"
    },
    {
      "anonymous": false,
      "inputs": [
        {
          "indexed": false,
          "name": "log",
          "type": "bytes32"
        }
      ],
      "name": "DebugBytes32",
      "type": "event"
    },
    {
      "anonymous": false,
      "inputs": [
        {
          "indexed": false,
          "name": "log",
          "type": "bytes20"
        }
      ],
      "name": "DebugBytes20",
      "type": "event"
    },
    {
      "anonymous": false,
      "inputs": [
        {
          "indexed": false,
          "name": "log",
          "type": "address"
        }
      ],
      "name": "DebugAddress",
      "type": "event"
    },
    {
      "anonymous": false,
      "inputs": [
        {
          "indexed": true,
          "name": "previousOwner",
          "type": "address"
        }
      ],
      "name": "OwnershipRenounced",
      "type": "event"
    },
    {
      "anonymous": false,
      "inputs": [
        {
          "indexed": true,
          "name": "previousOwner",
          "type": "address"
        },
        {
          "indexed": true,
          "name": "newOwner",
          "type": "address"
        }
      ],
      "name": "OwnershipTransferred",
      "type": "event"
    },
    {
      "constant": false,
      "inputs": [
        {
          "name": "_salt",
          "type": "uint256"
        },
        {
          "name": "_owner1",
          "type": "address"
        },
        {
          "name": "_owner2",
          "type": "address"
        }
      ],
      "name": "createWallet",
      "outputs": [
        {
          "name": "",
          "type": "address"
        }
      ],
      "payable": false,
      "stateMutability": "nonpayable",
      "type": "function"
    },
    {
      "constant": false,
      "inputs": [
        {
          "name": "_salt",
          "type": "uint256"
        },
        {
          "name": "_sender",
          "type": "address"
        }
      ],
      "name": "getDeploymentAddress",
      "outputs": [
        {
          "name": "",
          "type": "address"
        }
      ],
      "payable": false,
      "stateMutability": "nonpayable",
      "type": "function"
    }
  ],
  "bytecode": "0x608060405234801561001057600080fd5b50600080546001600160a01b03191633179055341561009057604080517f08c379a000000000000000000000000000000000000000000000000000000000815260206004820152601360248201527f6d757374206e6f742073656e6420457468657200000000000000000000000000604482015290519081900360640190fd5b60405161009f602082016100c3565b601f1982820381018352601f909101166040528051602091909101206001556100d0565b610e26806115bb83390190565b6114dc806100df6000396000f3fe608060405234801561001057600080fd5b50600436106100725760003560e01c80638da5cb5b116100505780638da5cb5b146100f85780639f727c2714610100578063f2fde38b1461010857610072565b8063715018a6146100745780637c028b6d1461007c57806381ae1f5b146100cc575b005b61007261012e565b6100b06004803603606081101561009257600080fd5b508035906001600160a01b03602082013581169160400135166101d2565b604080516001600160a01b039092168252519081900360200190f35b6100b0600480360360408110156100e257600080fd5b50803590602001356001600160a01b03166101e8565b6100b0610359565b610072610368565b6100726004803603602081101561011e57600080fd5b50356001600160a01b03166103e7565b6000546001600160a01b0316331461017d576040805162461bcd60e51b815260206004820152600d60248201526c36bab9ba1031329037bbb732b960991b604482015290519081900360640190fd5b600080546040516001600160a01b03909116917ff8df31144d9c2f0f6b59d69b8b98abd5459d07f2742c4df920b25aae33c6482091a26000805473ffffffffffffffffffffffffffffffffffffffff19169055565b60006101e08433858561043f565b949350505050565b6000806101f58484610519565b600154604080517fff000000000000000000000000000000000000000000000000000000000000006020808301919091523060601b60218301526035820185905260558083019490945282518083039094018452607582018084528451949091019390932092839052905192935090917f110cb96fe6c668b63c7e7dabd2d19d22d1965292a36646de1584ccf2d1d934199181900360950190a160408051606083901b815290517f110cb96fe6c668b63c7e7dabd2d19d22d1965292a36646de1584ccf2d1d934199181900360200190a1604080516bffffffffffffffffffffffff19606084901b16815290517fa3d961ab70e98aee9359ed6b30cbacd2fd3dd346f9fe20adc1935ae5bba86b0b9181900360200190a1604080516001600160a01b038316815290517fe7375f84984fefa09f5f03aa56ffb11ed839b99d56943f858953e537609f8be79181900360200190a16001600160a01b0316949350505050565b6000546001600160a01b031681565b6000546001600160a01b031633146103b7576040805162461bcd60e51b815260206004820152600d60248201526c36bab9ba1031329037bbb732b960991b604482015290519081900360640190fd5b6040513390303180156108fc02916000818181858888f193505050501580156103e4573d6000803e3d6000fd5b50565b6000546001600160a01b03163314610436576040805162461bcd60e51b815260206004820152600d60248201526c36bab9ba1031329037bbb732b960991b604482015290519081900360640190fd5b6103e481610558565b60008061044c868661061b565b604080517f485cc9550000000000000000000000000000000000000000000000000000000081526001600160a01b038781166004830152868116602483015291519293509083169163485cc9559160448082019260009290919082900301818387803b1580156104bb57600080fd5b505af11580156104cf573d6000803e3d6000fd5b5050604080516001600160a01b038516815290517f234cf33b32239d80b54161e2396c80cdeaf4d34161300e54d8bc01eb7c0ea5539350908190036020019150a195945050505050565b6040805160208082019490945260609290921b6bffffffffffffffffffffffff1916828201528051808303603401815260549092019052805191012090565b6001600160a01b0381166105b3576040805162461bcd60e51b815260206004820152601960248201527f63616e6e6f742072656e6f756e6365206f776e65727368697000000000000000604482015290519081900360640190fd5b600080546040516001600160a01b03808516939216917f8be0079c531659141344cd1fd0a4f28419497f9722a3daafe3b4186f6b6457e091a36000805473ffffffffffffffffffffffffffffffffffffffff19166001600160a01b0392909216919091179055565b60008060606040518060200161063090610674565b601f1982820381018352601f90910116604052905060006106518686610519565b9050808251602084016000f59250823b61066a57600080fd5b5090949350505050565b610e26806106828339019056fe60806040526000805460ff19168155600281815560035560045534801561002557600080fd5b50610df1806100356000396000f3fe60806040526004361061007b5760003560e01c8063a68a76cc1161004e578063a68a76cc14610153578063a7dd7a5914610168578063bb6d203c1461017d578063d0590bad146101e25761007b565b8063158ef93e146100b157806323eb861c146100da578063485cc95514610101578063843b1a091461013e575b604080513031815290517fc4c14883ae9fd8e26d5d59e3485ed29fd126d781d7e498a4ca5c54c8268e49369181900360200190a1005b3480156100bd57600080fd5b506100c661021b565b604080519115158252519081900360200190f35b3480156100e657600080fd5b506100ef610224565b60408051918252519081900360200190f35b34801561010d57600080fd5b5061013c6004803603604081101561012457600080fd5b506001600160a01b038135811691602001351661022a565b005b34801561014a57600080fd5b506100ef6103a9565b34801561015f57600080fd5b5061013c6103af565b34801561017457600080fd5b506100ef61041d565b34801561018957600080fd5b5061013c60048036036101008110156101a157600080fd5b506001600160a01b038135169060208101359060ff604082013581169160608101359160808201359160a08101359091169060c08101359060e00135610423565b3480156101ee57600080fd5b506100ef6004803603604081101561020557600080fd5b506001600160a01b038135169060200135610568565b60005460ff1681565b60035481565b60005460ff1615610266576040805162461bcd60e51b81526020600482015260016024820152603160f81b604482015290519081900360640190fd5b60006001600160a01b0383166102a7576040805162461bcd60e51b81526020600482015260016024820152603160f81b604482015290519081900360640190fd5b806001600160a01b0316826001600160a01b031614156102f2576040805162461bcd60e51b81526020600482015260016024820152603160f81b604482015290519081900360640190fd5b816001600160a01b0316836001600160a01b0316141561033d576040805162461bcd60e51b81526020600482015260016024820152603160f81b604482015290519081900360640190fd5b6001600160a01b038084166000908152600160208190526040808320805460ff19908116841790915593861683528083208054851683179055825490931617815590517f5daa87a0e9463431830481fd4b6e3403442dfb9a12b9c07597e9f61d50b633c89190a1505050565b60025481565b60006040516103bd90610900565b604051809103906000f0801580156103d9573d6000803e3d6000fd5b50604080516001600160a01b038316815290519192507f6a1722b151fa6ee2129092224b7b96addf678f7981115ec5867d03fd820a4158919081900360200190a150565b60045481565b3031871115610479576040805162461bcd60e51b815260206004820152600160248201527f3300000000000000000000000000000000000000000000000000000000000000604482015290519081900360640190fd5b610489888888888888888861061d565b6104da576040805162461bcd60e51b815260206004820152600160248201527f3400000000000000000000000000000000000000000000000000000000000000604482015290519081900360640190fd5b6002805460010190556040516001600160a01b0389169088156108fc029089906000818181858888f19350505050158015610519573d6000803e3d6000fd5b50604080516001600160a01b038a1681526020810189905281517fd3eec71143c45f28685b24760ea218d476917aa0ac0392a55e5304cef40bd2b6929181900390910190a15050505050505050565b60006001600160a01b0383163014156105c8576040805162461bcd60e51b815260206004820152600160248201527f3200000000000000000000000000000000000000000000000000000000000000604482015290519081900360640190fd5b506002546040805160208082019390935230606090811b8284015260548201949094529390921b6bffffffffffffffffffffffff19166074840152815180840360680181526088909301909152815191012090565b60008061062a8a8a61074a565b905060006001828a8a8a60405160008152602001604052604051808581526020018460ff1660ff1681526020018381526020018281526020019450505050506020604051602081039080840390855afa15801561068b573d6000803e3d6000fd5b505060408051601f19808201516000808452602084810180875289905260ff8d1685870152606085018c9052608085018b90529451919650945060019360a0808501949193830192918290030190855afa1580156106ed573d6000803e3d6000fd5b5050506020604051035190506107038282610808565b610738576040805162461bcd60e51b81526020600482015260016024820152603560f81b604482015290519081900360640190fd5b5060019b9a5050505050505050505050565b6000806107578484610568565b905060606040518060400160405280601c81526020017f19457468657265756d205369676e6564204d6573736167653a0a333200000000815250905080826040516020018083805190602001908083835b602083106107c75780518252601f1990920191602091820191016107a8565b51815160209384036101000a600019018019909216911617905292019384525060408051808503815293820190528251920191909120979650505050505050565b6000816001600160a01b0316836001600160a01b03161415610855576040805162461bcd60e51b81526020600482015260016024820152603560f81b604482015290519081900360640190fd5b6001600160a01b03831660009081526001602052604090205460ff166108a6576040805162461bcd60e51b81526020600482015260016024820152603560f81b604482015290519081900360640190fd5b6001600160a01b03821660009081526001602052604090205460ff166108f7576040805162461bcd60e51b81526020600482015260016024820152603560f81b604482015290519081900360640190fd5b50600192915050565b6104af8061090e8339019056fe608060405234801561001057600080fd5b50600080546001600160a01b0319163317905561047d806100326000396000f3fe6080604052600436106100335760003560e01c8062821de3146100f35780633ef13367146101245780636b9f96ea14610159575b600080546040516001600160a01b03909116913480156108fc02929091818181858888f1935050505015801561006d573d6000803e3d6000fd5b507f69b31548dea9b3b707b4dff357d326e3e9348b24e7a6080a218a6edeeec48f9b333460003660405180856001600160a01b03166001600160a01b03168152602001848152602001806020018281038252848482818152602001925080828437600083820152604051601f909101601f191690920182900397509095505050505050a1005b3480156100ff57600080fd5b5061010861016e565b604080516001600160a01b039092168252519081900360200190f35b34801561013057600080fd5b506101576004803603602081101561014757600080fd5b50356001600160a01b031661017d565b005b34801561016557600080fd5b506101576103e4565b6000546001600160a01b031681565b6000546001600160a01b031633146101c65760405162461bcd60e51b81526004018080602001828103825260268152602001806104236026913960400191505060405180910390fd5b604080517f70a08231000000000000000000000000000000000000000000000000000000008152306004820181905291518392916000916001600160a01b038516916370a08231916024808301926020929190829003018186803b15801561022d57600080fd5b505afa158015610241573d6000803e3d6000fd5b505050506040513d602081101561025757600080fd5b50519050806102ad576040805162461bcd60e51b815260206004820152601660248201527f546f6b656e2062616c616e6365206973207a65726f2e00000000000000000000604482015290519081900360640190fd5b60008054604080517fa9059cbb0000000000000000000000000000000000000000000000000000000081526001600160a01b0392831660048201526024810185905290519186169263a9059cbb926044808401936020939083900390910190829087803b15801561031d57600080fd5b505af1158015610331573d6000803e3d6000fd5b505050506040513d602081101561034757600080fd5b505161039a576040805162461bcd60e51b815260206004820152601660248201527f546f6b656e207472616e73666572206661696c65642e00000000000000000000604482015290519081900360640190fd5b604080516001600160a01b03861681526020810183905281517f75d34d39d28e6c8fd84f5539c817dea378701028c77ceade58bb8789b3e81bde929181900390910190a150505050565b600080546040516001600160a01b0390911691303180156108fc02929091818181858888f1935050505015801561041f573d6000803e3d6000fd5b5056fe4f6e6c7920706172656e742063616e206578656375746520746869732066756e6374696f6e2ea265627a7a72305820243bfaf81a15bfcca87cc20d6bb70c0b53659e635be942b8cc6d05cd7885f50264736f6c634300050a0032a265627a7a723058203a6032f6f421d60e61a98a3b541953303ce62eb2a9ccf9882a5772e40d46be4d64736f6c634300050a0032a265627a7a723058208f8b86254049fb7541a81ef15d53ddfe8446334a19bf14fd04dcb3481ca5ebb664736f6c634300050a003260806040526000805460ff19168155600281815560035560045534801561002557600080fd5b50610df1806100356000396000f3fe60806040526004361061007b5760003560e01c8063a68a76cc1161004e578063a68a76cc14610153578063a7dd7a5914610168578063bb6d203c1461017d578063d0590bad146101e25761007b565b8063158ef93e146100b157806323eb861c146100da578063485cc95514610101578063843b1a091461013e575b604080513031815290517fc4c14883ae9fd8e26d5d59e3485ed29fd126d781d7e498a4ca5c54c8268e49369181900360200190a1005b3480156100bd57600080fd5b506100c661021b565b604080519115158252519081900360200190f35b3480156100e657600080fd5b506100ef610224565b60408051918252519081900360200190f35b34801561010d57600080fd5b5061013c6004803603604081101561012457600080fd5b506001600160a01b038135811691602001351661022a565b005b34801561014a57600080fd5b506100ef6103a9565b34801561015f57600080fd5b5061013c6103af565b34801561017457600080fd5b506100ef61041d565b34801561018957600080fd5b5061013c60048036036101008110156101a157600080fd5b506001600160a01b038135169060208101359060ff604082013581169160608101359160808201359160a08101359091169060c08101359060e00135610423565b3480156101ee57600080fd5b506100ef6004803603604081101561020557600080fd5b506001600160a01b038135169060200135610568565b60005460ff1681565b60035481565b60005460ff1615610266576040805162461bcd60e51b81526020600482015260016024820152603160f81b604482015290519081900360640190fd5b60006001600160a01b0383166102a7576040805162461bcd60e51b81526020600482015260016024820152603160f81b604482015290519081900360640190fd5b806001600160a01b0316826001600160a01b031614156102f2576040805162461bcd60e51b81526020600482015260016024820152603160f81b604482015290519081900360640190fd5b816001600160a01b0316836001600160a01b0316141561033d576040805162461bcd60e51b81526020600482015260016024820152603160f81b604482015290519081900360640190fd5b6001600160a01b038084166000908152600160208190526040808320805460ff19908116841790915593861683528083208054851683179055825490931617815590517f5daa87a0e9463431830481fd4b6e3403442dfb9a12b9c07597e9f61d50b633c89190a1505050565b60025481565b60006040516103bd90610900565b604051809103906000f0801580156103d9573d6000803e3d6000fd5b50604080516001600160a01b038316815290519192507f6a1722b151fa6ee2129092224b7b96addf678f7981115ec5867d03fd820a4158919081900360200190a150565b60045481565b3031871115610479576040805162461bcd60e51b815260206004820152600160248201527f3300000000000000000000000000000000000000000000000000000000000000604482015290519081900360640190fd5b610489888888888888888861061d565b6104da576040805162461bcd60e51b815260206004820152600160248201527f3400000000000000000000000000000000000000000000000000000000000000604482015290519081900360640190fd5b6002805460010190556040516001600160a01b0389169088156108fc029089906000818181858888f19350505050158015610519573d6000803e3d6000fd5b50604080516001600160a01b038a1681526020810189905281517fd3eec71143c45f28685b24760ea218d476917aa0ac0392a55e5304cef40bd2b6929181900390910190a15050505050505050565b60006001600160a01b0383163014156105c8576040805162461bcd60e51b815260206004820152600160248201527f3200000000000000000000000000000000000000000000000000000000000000604482015290519081900360640190fd5b506002546040805160208082019390935230606090811b8284015260548201949094529390921b6bffffffffffffffffffffffff19166074840152815180840360680181526088909301909152815191012090565b60008061062a8a8a61074a565b905060006001828a8a8a60405160008152602001604052604051808581526020018460ff1660ff1681526020018381526020018281526020019450505050506020604051602081039080840390855afa15801561068b573d6000803e3d6000fd5b505060408051601f19808201516000808452602084810180875289905260ff8d1685870152606085018c9052608085018b90529451919650945060019360a0808501949193830192918290030190855afa1580156106ed573d6000803e3d6000fd5b5050506020604051035190506107038282610808565b610738576040805162461bcd60e51b81526020600482015260016024820152603560f81b604482015290519081900360640190fd5b5060019b9a5050505050505050505050565b6000806107578484610568565b905060606040518060400160405280601c81526020017f19457468657265756d205369676e6564204d6573736167653a0a333200000000815250905080826040516020018083805190602001908083835b602083106107c75780518252601f1990920191602091820191016107a8565b51815160209384036101000a600019018019909216911617905292019384525060408051808503815293820190528251920191909120979650505050505050565b6000816001600160a01b0316836001600160a01b03161415610855576040805162461bcd60e51b81526020600482015260016024820152603560f81b604482015290519081900360640190fd5b6001600160a01b03831660009081526001602052604090205460ff166108a6576040805162461bcd60e51b81526020600482015260016024820152603560f81b604482015290519081900360640190fd5b6001600160a01b03821660009081526001602052604090205460ff166108f7576040805162461bcd60e51b81526020600482015260016024820152603560f81b604482015290519081900360640190fd5b50600192915050565b6104af8061090e8339019056fe608060405234801561001057600080fd5b50600080546001600160a01b0319163317905561047d806100326000396000f3fe6080604052600436106100335760003560e01c8062821de3146100f35780633ef13367146101245780636b9f96ea14610159575b600080546040516001600160a01b03909116913480156108fc02929091818181858888f1935050505015801561006d573d6000803e3d6000fd5b507f69b31548dea9b3b707b4dff357d326e3e9348b24e7a6080a218a6edeeec48f9b333460003660405180856001600160a01b03166001600160a01b03168152602001848152602001806020018281038252848482818152602001925080828437600083820152604051601f909101601f191690920182900397509095505050505050a1005b3480156100ff57600080fd5b5061010861016e565b604080516001600160a01b039092168252519081900360200190f35b34801561013057600080fd5b506101576004803603602081101561014757600080fd5b50356001600160a01b031661017d565b005b34801561016557600080fd5b506101576103e4565b6000546001600160a01b031681565b6000546001600160a01b031633146101c65760405162461bcd60e51b81526004018080602001828103825260268152602001806104236026913960400191505060405180910390fd5b604080517f70a08231000000000000000000000000000000000000000000000000000000008152306004820181905291518392916000916001600160a01b038516916370a08231916024808301926020929190829003018186803b15801561022d57600080fd5b505afa158015610241573d6000803e3d6000fd5b505050506040513d602081101561025757600080fd5b50519050806102ad576040805162461bcd60e51b815260206004820152601660248201527f546f6b656e2062616c616e6365206973207a65726f2e00000000000000000000604482015290519081900360640190fd5b60008054604080517fa9059cbb0000000000000000000000000000000000000000000000000000000081526001600160a01b0392831660048201526024810185905290519186169263a9059cbb926044808401936020939083900390910190829087803b15801561031d57600080fd5b505af1158015610331573d6000803e3d6000fd5b505050506040513d602081101561034757600080fd5b505161039a576040805162461bcd60e51b815260206004820152601660248201527f546f6b656e207472616e73666572206661696c65642e00000000000000000000604482015290519081900360640190fd5b604080516001600160a01b03861681526020810183905281517f75d34d39d28e6c8fd84f5539c817dea378701028c77ceade58bb8789b3e81bde929181900390910190a150505050565b600080546040516001600160a01b0390911691303180156108fc02929091818181858888f1935050505015801561041f573d6000803e3d6000fd5b5056fe4f6e6c7920706172656e742063616e206578656375746520746869732066756e6374696f6e2ea265627a7a72305820243bfaf81a15bfcca87cc20d6bb70c0b53659e635be942b8cc6d05cd7885f50264736f6c634300050a0032a265627a7a723058203a6032f6f421d60e61a98a3b541953303ce62eb2a9ccf9882a5772e40d46be4d64736f6c634300050a0032",
  "source": "pragma solidity ^0.5.6;\n\nimport \"./Wallets/InitializableMultiSig2of2.sol\";\nimport \"./Ownership/HasNoEther.sol\";\n\ncontract WalletFactory2 is HasNoEther {\n\n    event WalletCreated(address wallet);\n    event DebugBytes32(bytes32 log);\n    event DebugBytes20(bytes20 log);\n    event DebugAddress(address log);\n\n    bytes32 private contractCodeHash;\n\n    constructor() public {\n        contractCodeHash = keccak256(\n            type(InitializableMultiSig2of2).creationCode\n        );\n    }\n\n    function createWallet(uint256 _salt, address _owner1, address _owner2) public returns (address) {\n        return _createWallet(_salt, msg.sender, _owner1, _owner2);\n    }\n\n    function getDeploymentAddress(uint256 _salt, address _sender) public returns (address) {\n        // Adapted from https://github.com/archanova/solidity/blob/08f8f6bedc6e71c24758d20219b7d0749d75919d/contracts/contractCreator/ContractCreator.sol\n        bytes32 salt = _getSalt(_salt, _sender);\n        bytes32 rawAddress = keccak256(\n            abi.encodePacked(\n                bytes1(0xff),\n                address(this),\n                salt,\n                contractCodeHash\n        )\n        );\n\n        emit DebugBytes32(rawAddress);\n        emit DebugBytes32(rawAddress << 96);\n        emit DebugBytes20(bytes20(rawAddress << 96));\n        emit DebugAddress(address(bytes20(rawAddress << 96)));\n\n        return address(bytes20(rawAddress << 96));\n    }\n\n    function _createWallet(uint256 _salt, address _sender, address _owner1, address _owner2) internal returns (address) {\n        InitializableMultiSig2of2 wallet = _deployWallet(_salt, _sender);\n        wallet.initialize(_owner1, _owner2);\n        emit WalletCreated(address(wallet));\n        return address(wallet);\n    }\n\n    function _deployWallet(uint256 _salt, address _sender) internal returns (InitializableMultiSig2of2) {\n        address payable addr;\n        bytes memory code = type(InitializableMultiSig2of2).creationCode;\n        bytes32 salt = _getSalt(_salt, _sender);\n\n        assembly {\n            addr := create2(0, add(code, 0x20), mload(code), salt)\n            if iszero(extcodesize(addr)) {\n                revert(0, 0)\n            }\n        }\n\n        return InitializableMultiSig2of2(addr);\n    }\n\n    function _getSalt(uint256 _salt, address _sender) internal pure returns (bytes32) {\n        return keccak256(abi.encodePacked(_salt, _sender)); \n    }\n}\n",
  "sourcePath": "/Users/seita/go/src/github.com/github.com/seita-uc/ethereum-multisig/contracts/WalletFactory2.sol",
  "compiler": {
    "name": "solc",
    "version": "0.5.10+commit.5a6ea5b1.Emscripten.clang"
  },
  "schemaVersion": "3.0.11",
  "updatedAt": "2019-06-28T06:56:32.602Z",
  "devdoc": {
    "methods": {
      "reclaimEther()": {
        "details": "Transfers all Ether held by this contract to the owner."
      },
      "renounceOwnership()": {
        "details": "Allows the current `owner` to renounce ownership"
      },
      "transferOwnership(address)": {
        "details": "Allows the current `owner` to transfer ownership",
        "params": {
          "_newOwner": "The new `owner`"
        }
      }
    }
  },
  "userdoc": {
    "methods": {}
  }
}