{
  "contractName": "WalletFactory",
  "abi": [
    {
      "constant": false,
      "inputs": [],
      "name": "renounceOwnership",
      "outputs": [],
      "payable": false,
      "stateMutability": "nonpayable",
      "type": "function"
    },
    {
      "constant": true,
      "inputs": [],
      "name": "owner",
      "outputs": [
        {
          "name": "",
          "type": "address"
        }
      ],
      "payable": false,
      "stateMutability": "view",
      "type": "function"
    },
    {
      "constant": false,
      "inputs": [],
      "name": "reclaimEther",
      "outputs": [],
      "payable": false,
      "stateMutability": "nonpayable",
      "type": "function"
    },
    {
      "constant": false,
      "inputs": [
        {
          "name": "_newOwner",
          "type": "address"
        }
      ],
      "name": "transferOwnership",
      "outputs": [],
      "payable": false,
      "stateMutability": "nonpayable",
      "type": "function"
    },
    {
      "inputs": [],
      "payable": false,
      "stateMutability": "nonpayable",
      "type": "constructor"
    },
    {
      "payable": false,
      "stateMutability": "nonpayable",
      "type": "fallback"
    },
    {
      "anonymous": false,
      "inputs": [
        {
          "indexed": false,
          "name": "wallet",
          "type": "address"
        },
        {
          "indexed": false,
          "name": "owner1",
          "type": "address"
        },
        {
          "indexed": false,
          "name": "owner2",
          "type": "address"
        }
      ],
      "name": "WalletCreated",
      "type": "event"
    },
    {
      "anonymous": false,
      "inputs": [
        {
          "indexed": true,
          "name": "previousOwner",
          "type": "address"
        }
      ],
      "name": "OwnershipRenounced",
      "type": "event"
    },
    {
      "anonymous": false,
      "inputs": [
        {
          "indexed": true,
          "name": "previousOwner",
          "type": "address"
        },
        {
          "indexed": true,
          "name": "newOwner",
          "type": "address"
        }
      ],
      "name": "OwnershipTransferred",
      "type": "event"
    },
    {
      "constant": false,
      "inputs": [
        {
          "name": "_owner1",
          "type": "address"
        },
        {
          "name": "_owner2",
          "type": "address"
        }
      ],
      "name": "deployWallet",
      "outputs": [],
      "payable": false,
      "stateMutability": "nonpayable",
      "type": "function"
    }
  ],
  "bytecode": "0x608060405234801561001057600080fd5b5060008054600160a060020a03191633179055341561009057604080517f08c379a000000000000000000000000000000000000000000000000000000000815260206004820152601360248201527f6d757374206e6f742073656e6420457468657200000000000000000000000000604482015290519081900360640190fd5b6110288061009f6000396000f30060806040526004361061006c5763ffffffff7c010000000000000000000000000000000000000000000000000000000060003504166370d74690811461007b578063715018a6146100b15780638da5cb5b146100c65780639f727c2714610104578063f2fde38b14610119575b34801561007857600080fd5b50005b34801561008757600080fd5b506100af73ffffffffffffffffffffffffffffffffffffffff60043581169060243516610147565b005b3480156100bd57600080fd5b506100af6101f5565b3480156100d257600080fd5b506100db6102dd565b6040805173ffffffffffffffffffffffffffffffffffffffff9092168252519081900360200190f35b34801561011057600080fd5b506100af6102f9565b34801561012557600080fd5b506100af73ffffffffffffffffffffffffffffffffffffffff600435166103af565b6000828261015361053f565b73ffffffffffffffffffffffffffffffffffffffff928316815291166020820152604080519182900301906000f080158015610193573d6000803e3d6000fd5b506040805173ffffffffffffffffffffffffffffffffffffffff8084168252808716602083015285168183015290519192507fca0b7dde26052d34217ef1a0cee48085a07ca32da0a918609937a307d496bbf5919081900360600190a1505050565b60005473ffffffffffffffffffffffffffffffffffffffff16331461027b57604080517f08c379a000000000000000000000000000000000000000000000000000000000815260206004820152600d60248201527f6d757374206265206f776e657200000000000000000000000000000000000000604482015290519081900360640190fd5b6000805460405173ffffffffffffffffffffffffffffffffffffffff909116917ff8df31144d9c2f0f6b59d69b8b98abd5459d07f2742c4df920b25aae33c6482091a26000805473ffffffffffffffffffffffffffffffffffffffff19169055565b60005473ffffffffffffffffffffffffffffffffffffffff1681565b60005473ffffffffffffffffffffffffffffffffffffffff16331461037f57604080517f08c379a000000000000000000000000000000000000000000000000000000000815260206004820152600d60248201527f6d757374206265206f776e657200000000000000000000000000000000000000604482015290519081900360640190fd5b6040513390303180156108fc02916000818181858888f193505050501580156103ac573d6000803e3d6000fd5b50565b60005473ffffffffffffffffffffffffffffffffffffffff16331461043557604080517f08c379a000000000000000000000000000000000000000000000000000000000815260206004820152600d60248201527f6d757374206265206f776e657200000000000000000000000000000000000000604482015290519081900360640190fd5b6103ac8173ffffffffffffffffffffffffffffffffffffffff811615156104bd57604080517f08c379a000000000000000000000000000000000000000000000000000000000815260206004820152601960248201527f63616e6e6f742072656e6f756e6365206f776e65727368697000000000000000604482015290519081900360640190fd5b6000805460405173ffffffffffffffffffffffffffffffffffffffff808516939216917f8be0079c531659141344cd1fd0a4f28419497f9722a3daafe3b4186f6b6457e091a36000805473ffffffffffffffffffffffffffffffffffffffff191673ffffffffffffffffffffffffffffffffffffffff92909216919091179055565b604051610aad806105508339019056006080604052600060015560028055600060035534801561001e57600080fd5b50604051604080610aad8339810160405280516020909101516000600160a060020a03831615156100b057604080517f08c379a000000000000000000000000000000000000000000000000000000000815260206004820152600160248201527f3100000000000000000000000000000000000000000000000000000000000000604482015290519081900360640190fd5b600160a060020a03828116908216141561012b57604080517f08c379a000000000000000000000000000000000000000000000000000000000815260206004820152600160248201527f3100000000000000000000000000000000000000000000000000000000000000604482015290519081900360640190fd5b600160a060020a0383811690831614156101a657604080517f08c379a000000000000000000000000000000000000000000000000000000000815260206004820152600160248201527f3100000000000000000000000000000000000000000000000000000000000000604482015290519081900360640190fd5b50600160a060020a03918216600090815260208190526040808220805460ff1990811660019081179092559390941682529020805490911690911790556108bb806101f26000396000f30060806040526004361061006c5763ffffffff7c010000000000000000000000000000000000000000000000000000000060003504166323eb861c81146100a2578063843b1a09146100c9578063a7dd7a59146100de578063bb6d203c146100f3578063d0590bad14610140575b604080513031815290517fc4c14883ae9fd8e26d5d59e3485ed29fd126d781d7e498a4ca5c54c8268e49369181900360200190a1005b3480156100ae57600080fd5b506100b7610171565b60408051918252519081900360200190f35b3480156100d557600080fd5b506100b7610177565b3480156100ea57600080fd5b506100b761017d565b3480156100ff57600080fd5b5061013e73ffffffffffffffffffffffffffffffffffffffff6004351660243560ff604435811690606435906084359060a4351660c43560e435610183565b005b34801561014c57600080fd5b506100b773ffffffffffffffffffffffffffffffffffffffff60043516602435610317565b60025481565b60015481565b60035481565b30318711156101f357604080517f08c379a000000000000000000000000000000000000000000000000000000000815260206004820152600160248201527f3300000000000000000000000000000000000000000000000000000000000000604482015290519081900360640190fd5b610203888888888888888861045c565b151561027057604080517f08c379a000000000000000000000000000000000000000000000000000000000815260206004820152600160248201527f3400000000000000000000000000000000000000000000000000000000000000604482015290519081900360640190fd5b600180548101905560405173ffffffffffffffffffffffffffffffffffffffff89169088156108fc029089906000818181858888f193505050501580156102bb573d6000803e3d6000fd5b506040805173ffffffffffffffffffffffffffffffffffffffff8a1681526020810189905281517fd3eec71143c45f28685b24760ea218d476917aa0ac0392a55e5304cef40bd2b6929181900390910190a15050505050505050565b60008073ffffffffffffffffffffffffffffffffffffffff841630141561039f57604080517f08c379a000000000000000000000000000000000000000000000000000000000815260206004820152600160248201527f3200000000000000000000000000000000000000000000000000000000000000604482015290519081900360640190fd5b600154604080516020808201939093526c01000000000000000000000000308102828401526054820187905273ffffffffffffffffffffffffffffffffffffffff881602607482015281516068818303018152608890910191829052805190928291908401908083835b602083106104285780518252601f199092019160209182019101610409565b5181516020939093036101000a60001901801990911692169190911790526040519201829003909120979650505050505050565b60008060008061046c8c8c6105be565b604080516000808252602080830180855285905260ff8f1683850152606083018e9052608083018d9052925193965060019360a08084019493601f19830193908390039091019190865af11580156104c8573d6000803e3d6000fd5b505060408051601f1980820151600080845260208481018087528a905260ff8e1685870152606085018d9052608085018c905294519197506001955060a0808501959493830193839003019190865af1158015610529573d6000803e3d6000fd5b50505060206040510351905061053f82826106d0565b15156105ac57604080517f08c379a000000000000000000000000000000000000000000000000000000000815260206004820152600160248201527f3500000000000000000000000000000000000000000000000000000000000000604482015290519081900360640190fd5b5060019b9a5050505050505050505050565b60008060606105cd8585610317565b91506040805190810160405280601c81526020017f19457468657265756d205369676e6564204d6573736167653a0a333200000000815250905080826040516020018083805190602001908083835b6020831061063b5780518252601f19909201916020918201910161061c565b51815160209384036101000a600019018019909216911617905292019384525060408051808503815293820190819052835193945092839250908401908083835b6020831061069b5780518252601f19909201916020918201910161067c565b5181516020939093036101000a6000190180199091169216919091179052604051920182900390912098975050505050505050565b600073ffffffffffffffffffffffffffffffffffffffff838116908316141561075a57604080517f08c379a000000000000000000000000000000000000000000000000000000000815260206004820152600160248201527f3500000000000000000000000000000000000000000000000000000000000000604482015290519081900360640190fd5b73ffffffffffffffffffffffffffffffffffffffff831660009081526020819052604090205460ff1615156107f057604080517f08c379a000000000000000000000000000000000000000000000000000000000815260206004820152600160248201527f3500000000000000000000000000000000000000000000000000000000000000604482015290519081900360640190fd5b73ffffffffffffffffffffffffffffffffffffffff821660009081526020819052604090205460ff16151561088657604080517f08c379a000000000000000000000000000000000000000000000000000000000815260206004820152600160248201527f3500000000000000000000000000000000000000000000000000000000000000604482015290519081900360640190fd5b506001929150505600a165627a7a72305820009a71ed6e0c0a0567d32297aa09a05dc30c0bb6ab977932296e7996e5064d490029a165627a7a72305820ea78250dfba5c94199b06140f68426ac4ba0b7af4d5b5cfdb5382f06a3cf9d950029",
  "source": "pragma solidity ^0.4.24;\n\nimport \"./Wallets/MultiSig2of2.sol\";\nimport \"./Ownership/HasNoEther.sol\";\n\n/// @title WalletFactory\n/// @dev A contract for creating wallets. \ncontract WalletFactory is HasNoEther {\n\n    event WalletCreated(address wallet, address owner1, address owner2);\n\n    constructor() public {}\n\n    function deployWallet(\n        address _owner1,\n        address _owner2\n    )\n    public \n    {\n        // instantiate full wallet the regular way\n        MultiSig2of2 wallet = new MultiSig2of2(_owner1, _owner2);\n        // emit event\n        emit WalletCreated(address(wallet), _owner1, _owner2);\n    }\n}\n",
  "sourcePath": "/Users/seita/go/src/github.com/github.com/seita-uc/ethereum-multisig/contracts/WalletFactory.sol",
  "compiler": {
    "name": "solc",
    "version": "0.4.26+commit.4563c3fc.Emscripten.clang"
  },
  "schemaVersion": "3.0.11",
  "updatedAt": "2019-06-26T11:05:30.497Z",
  "devdoc": {
    "methods": {
      "reclaimEther()": {
        "details": "Transfers all Ether held by this contract to the owner."
      },
      "renounceOwnership()": {
        "details": "Allows the current `owner` to renounce ownership"
      },
      "transferOwnership(address)": {
        "details": "Allows the current `owner` to transfer ownership",
        "params": {
          "_newOwner": "The new `owner`"
        }
      }
    },
    "title": "WalletFactory"
  },
  "userdoc": {
    "methods": {}
  }
}