{
  "contractName": "WalletFactory",
  "abi": [
    {
      "constant": false,
      "inputs": [],
      "name": "renounceOwnership",
      "outputs": [],
      "payable": false,
      "stateMutability": "nonpayable",
      "type": "function"
    },
    {
      "constant": true,
      "inputs": [],
      "name": "owner",
      "outputs": [
        {
          "name": "",
          "type": "address"
        }
      ],
      "payable": false,
      "stateMutability": "view",
      "type": "function"
    },
    {
      "constant": false,
      "inputs": [],
      "name": "reclaimEther",
      "outputs": [],
      "payable": false,
      "stateMutability": "nonpayable",
      "type": "function"
    },
    {
      "constant": false,
      "inputs": [
        {
          "name": "_newOwner",
          "type": "address"
        }
      ],
      "name": "transferOwnership",
      "outputs": [],
      "payable": false,
      "stateMutability": "nonpayable",
      "type": "function"
    },
    {
      "inputs": [],
      "payable": false,
      "stateMutability": "nonpayable",
      "type": "constructor"
    },
    {
      "payable": false,
      "stateMutability": "nonpayable",
      "type": "fallback"
    },
    {
      "anonymous": false,
      "inputs": [
        {
          "indexed": false,
          "name": "wallet",
          "type": "address"
        },
        {
          "indexed": false,
          "name": "owner1",
          "type": "address"
        },
        {
          "indexed": false,
          "name": "owner2",
          "type": "address"
        }
      ],
      "name": "WalletCreated",
      "type": "event"
    },
    {
      "anonymous": false,
      "inputs": [
        {
          "indexed": true,
          "name": "previousOwner",
          "type": "address"
        }
      ],
      "name": "OwnershipRenounced",
      "type": "event"
    },
    {
      "anonymous": false,
      "inputs": [
        {
          "indexed": true,
          "name": "previousOwner",
          "type": "address"
        },
        {
          "indexed": true,
          "name": "newOwner",
          "type": "address"
        }
      ],
      "name": "OwnershipTransferred",
      "type": "event"
    },
    {
      "constant": false,
      "inputs": [
        {
          "name": "_owner1",
          "type": "address"
        },
        {
          "name": "_owner2",
          "type": "address"
        }
      ],
      "name": "deployWallet",
      "outputs": [],
      "payable": false,
      "stateMutability": "nonpayable",
      "type": "function"
    }
  ],
  "bytecode": "0x608060405234801561001057600080fd5b5060008054600160a060020a03191633179055341561009057604080517f08c379a000000000000000000000000000000000000000000000000000000000815260206004820152601360248201527f6d757374206e6f742073656e6420457468657200000000000000000000000000604482015290519081900360640190fd5b610fee8061009f6000396000f3fe608060405234801561001057600080fd5b5060043610610084576000357c0100000000000000000000000000000000000000000000000000000000900480638da5cb5b1161006d5780638da5cb5b146100c95780639f727c27146100fa578063f2fde38b1461010257610084565b806370d7469014610086578063715018a6146100c1575b005b6100846004803603604081101561009c57600080fd5b5073ffffffffffffffffffffffffffffffffffffffff81358116916020013516610135565b6100846101e7565b6100d16102cf565b6040805173ffffffffffffffffffffffffffffffffffffffff9092168252519081900360200190f35b6100846102eb565b6100846004803603602081101561011857600080fd5b503573ffffffffffffffffffffffffffffffffffffffff166103a1565b600082826040516101459061052f565b73ffffffffffffffffffffffffffffffffffffffff928316815291166020820152604080519182900301906000f080158015610185573d6000803e3d6000fd5b506040805173ffffffffffffffffffffffffffffffffffffffff8084168252808716602083015285168183015290519192507fca0b7dde26052d34217ef1a0cee48085a07ca32da0a918609937a307d496bbf5919081900360600190a1505050565b60005473ffffffffffffffffffffffffffffffffffffffff16331461026d57604080517f08c379a000000000000000000000000000000000000000000000000000000000815260206004820152600d60248201527f6d757374206265206f776e657200000000000000000000000000000000000000604482015290519081900360640190fd5b6000805460405173ffffffffffffffffffffffffffffffffffffffff909116917ff8df31144d9c2f0f6b59d69b8b98abd5459d07f2742c4df920b25aae33c6482091a26000805473ffffffffffffffffffffffffffffffffffffffff19169055565b60005473ffffffffffffffffffffffffffffffffffffffff1681565b60005473ffffffffffffffffffffffffffffffffffffffff16331461037157604080517f08c379a000000000000000000000000000000000000000000000000000000000815260206004820152600d60248201527f6d757374206265206f776e657200000000000000000000000000000000000000604482015290519081900360640190fd5b6040513390303180156108fc02916000818181858888f1935050505015801561039e573d6000803e3d6000fd5b50565b60005473ffffffffffffffffffffffffffffffffffffffff16331461042757604080517f08c379a000000000000000000000000000000000000000000000000000000000815260206004820152600d60248201527f6d757374206265206f776e657200000000000000000000000000000000000000604482015290519081900360640190fd5b61039e8173ffffffffffffffffffffffffffffffffffffffff81166104ad57604080517f08c379a000000000000000000000000000000000000000000000000000000000815260206004820152601960248201527f63616e6e6f742072656e6f756e6365206f776e65727368697000000000000000604482015290519081900360640190fd5b6000805460405173ffffffffffffffffffffffffffffffffffffffff808516939216917f8be0079c531659141344cd1fd0a4f28419497f9722a3daafe3b4186f6b6457e091a36000805473ffffffffffffffffffffffffffffffffffffffff191673ffffffffffffffffffffffffffffffffffffffff92909216919091179055565b610a7d8061053d8339019056fe6080604052600060015560028055600060035534801561001e57600080fd5b50604051610a7d380380610a7d8339818101604052604081101561004157600080fd5b5080516020909101516000600160a060020a0383166100c157604080517f08c379a000000000000000000000000000000000000000000000000000000000815260206004820152600160248201527f3100000000000000000000000000000000000000000000000000000000000000604482015290519081900360640190fd5b80600160a060020a031682600160a060020a0316141561014257604080517f08c379a000000000000000000000000000000000000000000000000000000000815260206004820152600160248201527f3100000000000000000000000000000000000000000000000000000000000000604482015290519081900360640190fd5b81600160a060020a031683600160a060020a031614156101c357604080517f08c379a000000000000000000000000000000000000000000000000000000000815260206004820152600160248201527f3100000000000000000000000000000000000000000000000000000000000000604482015290519081900360640190fd5b50600160a060020a03918216600090815260208190526040808220805460ff19908116600190811790925593909416825290208054909116909117905561086e8061020f6000396000f3fe608060405260043610610077576000357c010000000000000000000000000000000000000000000000000000000090048063a7dd7a5911610060578063a7dd7a59146100e9578063bb6d203c146100fe578063d0590bad1461017257610077565b806323eb861c146100ad578063843b1a09146100d4575b604080513031815290517fc4c14883ae9fd8e26d5d59e3485ed29fd126d781d7e498a4ca5c54c8268e49369181900360200190a1005b3480156100b957600080fd5b506100c26101b8565b60408051918252519081900360200190f35b3480156100e057600080fd5b506100c26101be565b3480156100f557600080fd5b506100c26101c4565b34801561010a57600080fd5b50610170600480360361010081101561012257600080fd5b5073ffffffffffffffffffffffffffffffffffffffff8135169060208101359060ff604082013581169160608101359160808201359160a08101359091169060c08101359060e001356101ca565b005b34801561017e57600080fd5b506100c26004803603604081101561019557600080fd5b5073ffffffffffffffffffffffffffffffffffffffff813516906020013561035c565b60025481565b60015481565b60035481565b303187111561023a57604080517f08c379a000000000000000000000000000000000000000000000000000000000815260206004820152600160248201527f3300000000000000000000000000000000000000000000000000000000000000604482015290519081900360640190fd5b61024a888888888888888861044a565b6102b557604080517f08c379a000000000000000000000000000000000000000000000000000000000815260206004820152600160248201527f3400000000000000000000000000000000000000000000000000000000000000604482015290519081900360640190fd5b600180548101905560405173ffffffffffffffffffffffffffffffffffffffff89169088156108fc029089906000818181858888f19350505050158015610300573d6000803e3d6000fd5b506040805173ffffffffffffffffffffffffffffffffffffffff8a1681526020810189905281517fd3eec71143c45f28685b24760ea218d476917aa0ac0392a55e5304cef40bd2b6929181900390910190a15050505050505050565b600073ffffffffffffffffffffffffffffffffffffffff83163014156103e357604080517f08c379a000000000000000000000000000000000000000000000000000000000815260206004820152600160248201527f3200000000000000000000000000000000000000000000000000000000000000604482015290519081900360640190fd5b50600154604080516020808201939093526c01000000000000000000000000308102828401526054820185905273ffffffffffffffffffffffffffffffffffffffff8616026074820152815160688183030181526088909101909152805191012092915050565b6000806104578a8a6105ad565b905060006001828a8a8a60405160008152602001604052604051808581526020018460ff1660ff1681526020018381526020018281526020019450505050506020604051602081039080840390855afa1580156104b8573d6000803e3d6000fd5b505060408051601f19808201516000808452602084810180875289905260ff8d1685870152606085018c9052608085018b90529451919650945060019360a0808501949193830192918290030190855afa15801561051a573d6000803e3d6000fd5b505050602060405103519050610530828261066b565b61059b57604080517f08c379a000000000000000000000000000000000000000000000000000000000815260206004820152600160248201527f3500000000000000000000000000000000000000000000000000000000000000604482015290519081900360640190fd5b5060019b9a5050505050505050505050565b6000806105ba848461035c565b905060606040518060400160405280601c81526020017f19457468657265756d205369676e6564204d6573736167653a0a333200000000815250905080826040516020018083805190602001908083835b6020831061062a5780518252601f19909201916020918201910161060b565b51815160209384036101000a600019018019909216911617905292019384525060408051808503815293820190528251920191909120979650505050505050565b60008173ffffffffffffffffffffffffffffffffffffffff168373ffffffffffffffffffffffffffffffffffffffff16141561070857604080517f08c379a000000000000000000000000000000000000000000000000000000000815260206004820152600160248201527f3500000000000000000000000000000000000000000000000000000000000000604482015290519081900360640190fd5b73ffffffffffffffffffffffffffffffffffffffff831660009081526020819052604090205460ff1661079c57604080517f08c379a000000000000000000000000000000000000000000000000000000000815260206004820152600160248201527f3500000000000000000000000000000000000000000000000000000000000000604482015290519081900360640190fd5b73ffffffffffffffffffffffffffffffffffffffff821660009081526020819052604090205460ff1661083057604080517f08c379a000000000000000000000000000000000000000000000000000000000815260206004820152600160248201527f3500000000000000000000000000000000000000000000000000000000000000604482015290519081900360640190fd5b5060019291505056fea265627a7a72305820b94a7bed901eb33b99e71bd7e34df91d3bcd94b06a08acfbdc23ff7ec318eaad64736f6c634300050a0032a265627a7a72305820f1ef87054b10533904f106f023a868b3e14be1f3747676d7107afd484213e48b64736f6c634300050a0032",
  "source": "pragma solidity ^0.5.6;\n\nimport \"./Wallets/MultiSig2of2.sol\";\nimport \"./Ownership/HasNoEther.sol\";\n\n/// @title WalletFactory\n/// @dev A contract for creating wallets. \ncontract WalletFactory is HasNoEther {\n\n    event WalletCreated(address wallet, address owner1, address owner2);\n\n    constructor() public {}\n\n    function deployWallet(\n        address _owner1,\n        address _owner2\n    )\n    public \n    {\n        // instantiate full wallet the regular way\n        MultiSig2of2 wallet = new MultiSig2of2(_owner1, _owner2);\n        // emit event\n        emit WalletCreated(address(wallet), _owner1, _owner2);\n    }\n}\n",
  "sourcePath": "/Users/seita/go/src/github.com/github.com/seita-uc/ethereum-multisig/contracts/WalletFactory.sol",
  "compiler": {
    "name": "solc",
    "version": "0.5.10+commit.5a6ea5b1.Emscripten.clang"
  },
  "schemaVersion": "3.0.11",
  "updatedAt": "2019-06-27T02:26:41.889Z",
  "devdoc": {
    "details": "A contract for creating wallets. ",
    "methods": {
      "reclaimEther()": {
        "details": "Transfers all Ether held by this contract to the owner."
      },
      "renounceOwnership()": {
        "details": "Allows the current `owner` to renounce ownership"
      },
      "transferOwnership(address)": {
        "details": "Allows the current `owner` to transfer ownership",
        "params": {
          "_newOwner": "The new `owner`"
        }
      }
    },
    "title": "WalletFactory"
  },
  "userdoc": {
    "methods": {}
  }
}